{
  "_format": "hh-sol-artifact-1",
  "contractName": "WhitelistVoucher",
  "sourceName": "contracts/WhitelistVoucher.sol",
  "abi": [
    {
      "inputs": [
        {
          "internalType": "address",
          "name": "_gravTokenAddress",
          "type": "address"
        }
      ],
      "stateMutability": "nonpayable",
      "type": "constructor"
    },
    {
      "anonymous": false,
      "inputs": [
        {
          "indexed": true,
          "internalType": "address",
          "name": "owner",
          "type": "address"
        },
        {
          "indexed": true,
          "internalType": "address",
          "name": "approved",
          "type": "address"
        },
        {
          "indexed": true,
          "internalType": "uint256",
          "name": "tokenId",
          "type": "uint256"
        }
      ],
      "name": "Approval",
      "type": "event"
    },
    {
      "anonymous": false,
      "inputs": [
        {
          "indexed": true,
          "internalType": "address",
          "name": "owner",
          "type": "address"
        },
        {
          "indexed": true,
          "internalType": "address",
          "name": "operator",
          "type": "address"
        },
        {
          "indexed": false,
          "internalType": "bool",
          "name": "approved",
          "type": "bool"
        }
      ],
      "name": "ApprovalForAll",
      "type": "event"
    },
    {
      "anonymous": false,
      "inputs": [
        {
          "indexed": true,
          "internalType": "address",
          "name": "previousOwner",
          "type": "address"
        },
        {
          "indexed": true,
          "internalType": "address",
          "name": "newOwner",
          "type": "address"
        }
      ],
      "name": "OwnershipTransferred",
      "type": "event"
    },
    {
      "anonymous": false,
      "inputs": [
        {
          "indexed": true,
          "internalType": "address",
          "name": "from",
          "type": "address"
        },
        {
          "indexed": true,
          "internalType": "address",
          "name": "to",
          "type": "address"
        },
        {
          "indexed": true,
          "internalType": "uint256",
          "name": "tokenId",
          "type": "uint256"
        }
      ],
      "name": "Transfer",
      "type": "event"
    },
    {
      "anonymous": false,
      "inputs": [
        {
          "indexed": true,
          "internalType": "address",
          "name": "newVoucherHolder",
          "type": "address"
        },
        {
          "indexed": true,
          "internalType": "uint256",
          "name": "amountofRedeemableEggs",
          "type": "uint256"
        }
      ],
      "name": "newVoucherMinted",
      "type": "event"
    },
    {
      "inputs": [
        {
          "internalType": "uint256",
          "name": "",
          "type": "uint256"
        }
      ],
      "name": "VoucherList",
      "outputs": [
        {
          "internalType": "uint256",
          "name": "tokenID",
          "type": "uint256"
        },
        {
          "internalType": "uint256",
          "name": "redeemableEggs",
          "type": "uint256"
        },
        {
          "internalType": "uint256",
          "name": "IssuanceDate",
          "type": "uint256"
        },
        {
          "internalType": "bool",
          "name": "premintPaid",
          "type": "bool"
        }
      ],
      "stateMutability": "view",
      "type": "function"
    },
    {
      "inputs": [
        {
          "internalType": "address",
          "name": "to",
          "type": "address"
        },
        {
          "internalType": "uint256",
          "name": "tokenId",
          "type": "uint256"
        }
      ],
      "name": "approve",
      "outputs": [],
      "stateMutability": "nonpayable",
      "type": "function"
    },
    {
      "inputs": [
        {
          "internalType": "address",
          "name": "owner",
          "type": "address"
        }
      ],
      "name": "balanceOf",
      "outputs": [
        {
          "internalType": "uint256",
          "name": "",
          "type": "uint256"
        }
      ],
      "stateMutability": "view",
      "type": "function"
    },
    {
      "inputs": [
        {
          "internalType": "bool",
          "name": "_paid",
          "type": "bool"
        },
        {
          "internalType": "string",
          "name": "_newLinkOneEgg",
          "type": "string"
        },
        {
          "internalType": "string",
          "name": "_newLinkThreeEgg",
          "type": "string"
        },
        {
          "internalType": "string",
          "name": "_newLinkFiveEgg",
          "type": "string"
        }
      ],
      "name": "changeArt",
      "outputs": [],
      "stateMutability": "nonpayable",
      "type": "function"
    },
    {
      "inputs": [
        {
          "internalType": "uint256",
          "name": "_newPremintPrice",
          "type": "uint256"
        }
      ],
      "name": "changeMintingPrice",
      "outputs": [],
      "stateMutability": "nonpayable",
      "type": "function"
    },
    {
      "inputs": [
        {
          "internalType": "uint256",
          "name": "_tokenId",
          "type": "uint256"
        }
      ],
      "name": "checkIfPreminted",
      "outputs": [
        {
          "internalType": "bool",
          "name": "",
          "type": "bool"
        }
      ],
      "stateMutability": "view",
      "type": "function"
    },
    {
      "inputs": [
        {
          "internalType": "uint256",
          "name": "_tokenId",
          "type": "uint256"
        }
      ],
      "name": "checkRedeemableEggs",
      "outputs": [
        {
          "internalType": "uint256",
          "name": "",
          "type": "uint256"
        }
      ],
      "stateMutability": "view",
      "type": "function"
    },
    {
      "inputs": [],
      "name": "enablePremint",
      "outputs": [],
      "stateMutability": "nonpayable",
      "type": "function"
    },
    {
      "inputs": [
        {
          "internalType": "uint256",
          "name": "tokenId",
          "type": "uint256"
        }
      ],
      "name": "getApproved",
      "outputs": [
        {
          "internalType": "address",
          "name": "",
          "type": "address"
        }
      ],
      "stateMutability": "view",
      "type": "function"
    },
    {
      "inputs": [
        {
          "internalType": "address",
          "name": "owner",
          "type": "address"
        },
        {
          "internalType": "address",
          "name": "operator",
          "type": "address"
        }
      ],
      "name": "isApprovedForAll",
      "outputs": [
        {
          "internalType": "bool",
          "name": "",
          "type": "bool"
        }
      ],
      "stateMutability": "view",
      "type": "function"
    },
    {
      "inputs": [
        {
          "internalType": "uint256",
          "name": "_voucherSize",
          "type": "uint256"
        },
        {
          "internalType": "uint256",
          "name": "_amountOfTickets",
          "type": "uint256"
        }
      ],
      "name": "mintWhitelistVoucherNFT",
      "outputs": [],
      "stateMutability": "nonpayable",
      "type": "function"
    },
    {
      "inputs": [],
      "name": "name",
      "outputs": [
        {
          "internalType": "string",
          "name": "",
          "type": "string"
        }
      ],
      "stateMutability": "view",
      "type": "function"
    },
    {
      "inputs": [],
      "name": "owner",
      "outputs": [
        {
          "internalType": "address",
          "name": "",
          "type": "address"
        }
      ],
      "stateMutability": "view",
      "type": "function"
    },
    {
      "inputs": [
        {
          "internalType": "uint256",
          "name": "tokenId",
          "type": "uint256"
        }
      ],
      "name": "ownerOf",
      "outputs": [
        {
          "internalType": "address",
          "name": "",
          "type": "address"
        }
      ],
      "stateMutability": "view",
      "type": "function"
    },
    {
      "inputs": [
        {
          "internalType": "uint256[]",
          "name": "_tokenID",
          "type": "uint256[]"
        }
      ],
      "name": "premint",
      "outputs": [],
      "stateMutability": "nonpayable",
      "type": "function"
    },
    {
      "inputs": [],
      "name": "premintEnabled",
      "outputs": [
        {
          "internalType": "bool",
          "name": "",
          "type": "bool"
        }
      ],
      "stateMutability": "view",
      "type": "function"
    },
    {
      "inputs": [],
      "name": "renounceOwnership",
      "outputs": [],
      "stateMutability": "nonpayable",
      "type": "function"
    },
    {
      "inputs": [
        {
          "internalType": "address",
          "name": "from",
          "type": "address"
        },
        {
          "internalType": "address",
          "name": "to",
          "type": "address"
        },
        {
          "internalType": "uint256",
          "name": "tokenId",
          "type": "uint256"
        }
      ],
      "name": "safeTransferFrom",
      "outputs": [],
      "stateMutability": "nonpayable",
      "type": "function"
    },
    {
      "inputs": [
        {
          "internalType": "address",
          "name": "from",
          "type": "address"
        },
        {
          "internalType": "address",
          "name": "to",
          "type": "address"
        },
        {
          "internalType": "uint256",
          "name": "tokenId",
          "type": "uint256"
        },
        {
          "internalType": "bytes",
          "name": "_data",
          "type": "bytes"
        }
      ],
      "name": "safeTransferFrom",
      "outputs": [],
      "stateMutability": "nonpayable",
      "type": "function"
    },
    {
      "inputs": [
        {
          "internalType": "address",
          "name": "operator",
          "type": "address"
        },
        {
          "internalType": "bool",
          "name": "approved",
          "type": "bool"
        }
      ],
      "name": "setApprovalForAll",
      "outputs": [],
      "stateMutability": "nonpayable",
      "type": "function"
    },
    {
      "inputs": [
        {
          "internalType": "bytes4",
          "name": "interfaceId",
          "type": "bytes4"
        }
      ],
      "name": "supportsInterface",
      "outputs": [
        {
          "internalType": "bool",
          "name": "",
          "type": "bool"
        }
      ],
      "stateMutability": "view",
      "type": "function"
    },
    {
      "inputs": [],
      "name": "symbol",
      "outputs": [
        {
          "internalType": "string",
          "name": "",
          "type": "string"
        }
      ],
      "stateMutability": "view",
      "type": "function"
    },
    {
      "inputs": [
        {
          "internalType": "uint256",
          "name": "index",
          "type": "uint256"
        }
      ],
      "name": "tokenByIndex",
      "outputs": [
        {
          "internalType": "uint256",
          "name": "",
          "type": "uint256"
        }
      ],
      "stateMutability": "view",
      "type": "function"
    },
    {
      "inputs": [
        {
          "internalType": "address",
          "name": "owner",
          "type": "address"
        },
        {
          "internalType": "uint256",
          "name": "index",
          "type": "uint256"
        }
      ],
      "name": "tokenOfOwnerByIndex",
      "outputs": [
        {
          "internalType": "uint256",
          "name": "",
          "type": "uint256"
        }
      ],
      "stateMutability": "view",
      "type": "function"
    },
    {
      "inputs": [
        {
          "internalType": "uint256",
          "name": "_tokenId",
          "type": "uint256"
        }
      ],
      "name": "tokenURI",
      "outputs": [
        {
          "internalType": "string",
          "name": "",
          "type": "string"
        }
      ],
      "stateMutability": "view",
      "type": "function"
    },
    {
      "inputs": [],
      "name": "totalSupply",
      "outputs": [
        {
          "internalType": "uint256",
          "name": "",
          "type": "uint256"
        }
      ],
      "stateMutability": "view",
      "type": "function"
    },
    {
      "inputs": [
        {
          "internalType": "address",
          "name": "from",
          "type": "address"
        },
        {
          "internalType": "address",
          "name": "to",
          "type": "address"
        },
        {
          "internalType": "uint256",
          "name": "tokenId",
          "type": "uint256"
        }
      ],
      "name": "transferFrom",
      "outputs": [],
      "stateMutability": "nonpayable",
      "type": "function"
    },
    {
      "inputs": [
        {
          "internalType": "address",
          "name": "newOwner",
          "type": "address"
        }
      ],
      "name": "transferOwnership",
      "outputs": [],
      "stateMutability": "nonpayable",
      "type": "function"
    },
    {
      "inputs": [
        {
          "internalType": "contract IERC20",
          "name": "token",
          "type": "address"
        }
      ],
      "name": "withdrawErc20",
      "outputs": [],
      "stateMutability": "nonpayable",
      "type": "function"
    }
  ],
  "bytecode": "0x60e0604052603560808181529062002f8e60a03980516200002991600c9160209091019062000278565b5060405180606001604052806035815260200162002e856035913980516200005a91600d9160209091019062000278565b5060405180606001604052806035815260200162002eba6035913980516200008b91600e9160209091019062000278565b5060405180606001604052806035815260200162002eef603591398051620000bc91600f9160209091019062000278565b5060405180606001604052806035815260200162002f59603591398051620000ed9160109160209091019062000278565b5060405180606001604052806035815260200162002f246035913980516200011e9160119160209091019062000278565b506014805460ff1916905568056bc75e2d631000006015553480156200014357600080fd5b5060405162002fc338038062002fc383398101604081905262000166916200031e565b604080518082018252601581527f4f6e6576657273652045676720566f75636865727300000000000000000000006020808301918252835180850190945260068452654f562d45474760d01b908401528151919291620001c99160009162000278565b508051620001df90600190602084019062000278565b505050620001fc620001f66200022260201b60201c565b62000226565b600b80546001600160a01b0319166001600160a01b03929092169190911790556200038c565b3390565b600a80546001600160a01b038381166001600160a01b0319831681179093556040519116919082907f8be0079c531659141344cd1fd0a4f28419497f9722a3daafe3b4186f6b6457e090600090a35050565b828054620002869062000350565b90600052602060002090601f016020900481019282620002aa5760008555620002f5565b82601f10620002c557805160ff1916838001178555620002f5565b82800160010185558215620002f5579182015b82811115620002f5578251825591602001919060010190620002d8565b506200030392915062000307565b5090565b5b8082111562000303576000815560010162000308565b6000602082840312156200033157600080fd5b81516001600160a01b03811681146200034957600080fd5b9392505050565b600181811c908216806200036557607f821691505b6020821081036200038657634e487b7160e01b600052602260045260246000fd5b50919050565b612ae9806200039c6000396000f3fe608060405234801561001057600080fd5b50600436106101cf5760003560e01c806370a0823111610104578063a22cb465116100a2578063c87b56dd11610071578063c87b56dd146103b6578063cdebb41b146103c9578063e985e9c5146103fe578063f2fde38b1461043a57600080fd5b8063a22cb4651461036a578063a41c15691461037d578063b88d4fde14610390578063c7e42b1b146103a357600080fd5b80637fb8e614116100de5780637fb8e614146103365780638da5cb5b1461034957806395d89b411461035a57806397e5b2e21461036257600080fd5b806370a0823114610308578063715018a61461031b5780637dca03971461032357600080fd5b806323b872dd1161017157806342842e0e1161014b57806342842e0e146102c25780634f6ccce7146102d55780635cb4712c146102e85780636352211e146102f557600080fd5b806323b872dd146102895780632f745c591461029c578063333a95ed146102af57600080fd5b8063081812fc116101ad578063081812fc14610226578063095ea7b31461025157806318160ddd146102645780631fd27cd11461027657600080fd5b806301ffc9a7146101d457806306fdde03146101fc578063071bf7cb14610211575b600080fd5b6101e76101e2366004612196565b61044d565b60405190151581526020015b60405180910390f35b610204610478565b6040516101f39190612212565b61022461021f366004612225565b61050a565b005b61023961023436600461229a565b610766565b6040516001600160a01b0390911681526020016101f3565b61022461025f3660046122c8565b6107fb565b6008545b6040519081526020016101f3565b61022461028436600461229a565b61090b565b6102246102973660046122f4565b61093a565b6102686102aa3660046122c8565b61096b565b6101e76102bd36600461229a565b610a01565b6102246102d03660046122f4565b610a33565b6102686102e336600461229a565b610a4e565b6014546101e79060ff1681565b61023961030336600461229a565b610ae1565b610268610316366004612335565b610b58565b610224610bdf565b61022461033136600461240c565b610c15565b61026861034436600461229a565b610cc9565b600a546001600160a01b0316610239565b610204610cf7565b610224610d06565b6102246103783660046124a7565b610d3f565b61022461038b3660046124e0565b610d4e565b61022461039e366004612502565b610e9e565b6102246103b1366004612335565b610ed0565b6102046103c436600461229a565b61101c565b6103dc6103d736600461229a565b61142b565b60408051948552602085019390935291830152151560608201526080016101f3565b6101e761040c366004612576565b6001600160a01b03918216600090815260056020908152604080832093909416825291909152205460ff1690565b610224610448366004612335565b611468565b60006001600160e01b0319821663780e9d6360e01b1480610472575061047282611500565b92915050565b606060008054610487906125a4565b80601f01602080910402602001604051908101604052809291908181526020018280546104b3906125a4565b80156105005780601f106104d557610100808354040283529160200191610500565b820191906000526020600020905b8154815290600101906020018083116104e357829003601f168201915b5050505050905090565b60145460ff166105735760405162461bcd60e51b815260206004820152602960248201527f7072656d696e742069736e7420656e61626c6564207965742c20636f6d65206260448201526830b1b5903630ba32b960b91b60648201526084015b60405180910390fd5b60005b8181101561076157336105a0848484818110610594576105946125de565b90506020020135610ae1565b6001600160a01b0316146105f65760405162461bcd60e51b815260206004820152601a60248201527f596f7520646f6e74206f776e207468617420566f756368657221000000000000604482015260640161056a565b6000601554601285858581811061060f5761060f6125de565b9050602002013581548110610626576106266125de565b906000526020600020906004020160010154610642919061260a565b600b546040516323b872dd60e01b8152336004820152306024820152604481018390529192506001600160a01b0316906323b872dd906064016020604051808303816000875af115801561069a573d6000803e3d6000fd5b505050506040513d601f19601f820116820180604052508101906106be9190612629565b6106ff5760405162461bcd60e51b81526020600482015260126024820152714e6f7420456e6f75676820546f6b656e732160701b604482015260640161056a565b60016012858585818110610715576107156125de565b905060200201358154811061072c5761072c6125de565b60009182526020909120600490910201600301805460ff1916911515919091179055508061075981612646565b915050610576565b505050565b6000818152600260205260408120546001600160a01b03166107df5760405162461bcd60e51b815260206004820152602c60248201527f4552433732313a20617070726f76656420717565727920666f72206e6f6e657860448201526b34b9ba32b73a103a37b5b2b760a11b606482015260840161056a565b506000908152600460205260409020546001600160a01b031690565b600061080682610ae1565b9050806001600160a01b0316836001600160a01b0316036108735760405162461bcd60e51b815260206004820152602160248201527f4552433732313a20617070726f76616c20746f2063757272656e74206f776e656044820152603960f91b606482015260840161056a565b336001600160a01b038216148061088f575061088f813361040c565b6109015760405162461bcd60e51b815260206004820152603860248201527f4552433732313a20617070726f76652063616c6c6572206973206e6f74206f7760448201527f6e6572206e6f7220617070726f76656420666f7220616c6c0000000000000000606482015260840161056a565b6107618383611550565b600a546001600160a01b031633146109355760405162461bcd60e51b815260040161056a9061265f565b601555565b61094433826115be565b6109605760405162461bcd60e51b815260040161056a90612694565b6107618383836116b5565b600061097683610b58565b82106109d85760405162461bcd60e51b815260206004820152602b60248201527f455243373231456e756d657261626c653a206f776e657220696e646578206f7560448201526a74206f6620626f756e647360a81b606482015260840161056a565b506001600160a01b03919091166000908152600660209081526040808320938352929052205490565b600060128281548110610a1657610a166125de565b600091825260209091206003600490920201015460ff1692915050565b61076183838360405180602001604052806000815250610e9e565b6000610a5960085490565b8210610abc5760405162461bcd60e51b815260206004820152602c60248201527f455243373231456e756d657261626c653a20676c6f62616c20696e646578206f60448201526b7574206f6620626f756e647360a01b606482015260840161056a565b60088281548110610acf57610acf6125de565b90600052602060002001549050919050565b6000818152600260205260408120546001600160a01b0316806104725760405162461bcd60e51b815260206004820152602960248201527f4552433732313a206f776e657220717565727920666f72206e6f6e657869737460448201526832b73a103a37b5b2b760b91b606482015260840161056a565b60006001600160a01b038216610bc35760405162461bcd60e51b815260206004820152602a60248201527f4552433732313a2062616c616e636520717565727920666f7220746865207a65604482015269726f206164647265737360b01b606482015260840161056a565b506001600160a01b031660009081526003602052604090205490565b600a546001600160a01b03163314610c095760405162461bcd60e51b815260040161056a9061265f565b610c13600061185c565b565b600a546001600160a01b03163314610c3f5760405162461bcd60e51b815260040161056a9061265f565b8315610c86578251610c5890600f9060208601906120e7565b508151610c6c9060109060208501906120e7565b508051610c809060119060208401906120e7565b50610cc3565b8251610c9990600c9060208601906120e7565b508151610cad90600d9060208501906120e7565b508051610cc190600e9060208401906120e7565b505b50505050565b600060128281548110610cde57610cde6125de565b9060005260206000209060040201600101549050919050565b606060018054610487906125a4565b600a546001600160a01b03163314610d305760405162461bcd60e51b815260040161056a9061265f565b6014805460ff19166001179055565b610d4a3383836118ae565b5050565b6000610d5960135490565b905060005b82811015610cc357610d70338361197c565b610d7e601380546001019055565b6013546040805160808101825282815260208101878152428284019081526000606084018181526012805460018101825590835294517fbb8a6a4669ba250d26cd7a459eca9d215f8307e33aebe50379bc5a3617ec344460049096029586015592517fbb8a6a4669ba250d26cd7a459eca9d215f8307e33aebe50379bc5a3617ec344585015590517fbb8a6a4669ba250d26cd7a459eca9d215f8307e33aebe50379bc5a3617ec344684015590517fbb8a6a4669ba250d26cd7a459eca9d215f8307e33aebe50379bc5a3617ec3447909201805460ff1916921515929092179091559051919350859133917f9cfa26d3c6cc534927209a60b58862db007fbe48a1be9418bd12e783a4bd673491a380610e9681612646565b915050610d5e565b610ea833836115be565b610ec45760405162461bcd60e51b815260040161056a90612694565b610cc384848484611996565b600a546001600160a01b03163314610efa5760405162461bcd60e51b815260040161056a9061265f565b6040516370a0823160e01b81523060048201526001600160a01b0382169063a9059cbb90339083906370a0823190602401602060405180830381865afa158015610f48573d6000803e3d6000fd5b505050506040513d601f19601f82011682018060405250810190610f6c91906126e5565b6040516001600160e01b031960e085901b1681526001600160a01b03909216600483015260248201526044016020604051808303816000875af1158015610fb7573d6000803e3d6000fd5b505050506040513d601f19601f82011682018060405250810190610fdb9190612629565b6110195760405162461bcd60e51b815260206004820152600f60248201526e151c985b9cd9995c8819985a5b1959608a1b604482015260640161056a565b50565b6060600060128381548110611033576110336125de565b600091825260208083206040805160808101825260049094029091018054845260018101549284018390526002810154918401919091526003015460ff1615156060830152909250611084906119c9565b9050606080600061109885604001516119c9565b905060608560600151156110c6575060408051808201909152600381526279657360e81b60208201526110e1565b506040805180820190915260028152616e6f60f01b60208201525b8560600151156112585785602001516001036111bb5760405180604001604052806017815260200176151a595c8813db9948159bdd58da195c88151a58dad95d604a1b8152509350600f8054611136906125a4565b80601f0160208091040260200160405190810160405280929190818152602001828054611162906125a4565b80156111af5780601f10611184576101008083540402835291602001916111af565b820191906000526020600020905b81548152906001019060200180831161119257829003601f168201915b505050505092506113bc565b85602001516003036112065760405180604001604052806017815260200176151a595c88151ddbc8159bdd58da195c88151a58dad95d604a1b815250935060108054611136906125a4565b85602001516005036112535760405180604001604052806019815260200178151a595c88151a1c995948159bdd58da195c88151a58dad95d603a1b815250935060118054611136906125a4565b6113bc565b85602001516001036112a35760405180604001604052806017815260200176151a595c8813db9948159bdd58da195c88151a58dad95d604a1b8152509350600c8054611136906125a4565b85602001516003036112ee5760405180604001604052806017815260200176151a595c88151ddbc8159bdd58da195c88151a58dad95d604a1b8152509350600d8054611136906125a4565b85602001516005036113bc5760405180604001604052806019815260200178151a595c88151a1c995948159bdd58da195c88151a58dad95d603a1b8152509350600e805461133b906125a4565b80601f0160208091040260200160405190810160405280929190818152602001828054611367906125a4565b80156113b45780601f10611389576101008083540402835291602001916113b4565b820191906000526020600020905b81548152906001019060200180831161139757829003601f168201915b505050505092505b60006113f8856113cb8b6119c9565b868987876040516020016113e49695949392919061271a565b604051602081830303815290604052611aca565b905060008160405160200161140d91906128ff565b60408051601f198184030181529190529a9950505050505050505050565b6012818154811061143b57600080fd5b60009182526020909120600490910201805460018201546002830154600390930154919350919060ff1684565b600a546001600160a01b031633146114925760405162461bcd60e51b815260040161056a9061265f565b6001600160a01b0381166114f75760405162461bcd60e51b815260206004820152602660248201527f4f776e61626c653a206e6577206f776e657220697320746865207a65726f206160448201526564647265737360d01b606482015260840161056a565b6110198161185c565b60006001600160e01b031982166380ac58cd60e01b148061153157506001600160e01b03198216635b5e139f60e01b145b8061047257506301ffc9a760e01b6001600160e01b0319831614610472565b600081815260046020526040902080546001600160a01b0319166001600160a01b038416908117909155819061158582610ae1565b6001600160a01b03167f8c5be1e5ebec7d5bd14f71427d1e84f3dd0314c0f7b2291e5b200ac8c7c3b92560405160405180910390a45050565b6000818152600260205260408120546001600160a01b03166116375760405162461bcd60e51b815260206004820152602c60248201527f4552433732313a206f70657261746f7220717565727920666f72206e6f6e657860448201526b34b9ba32b73a103a37b5b2b760a11b606482015260840161056a565b600061164283610ae1565b9050806001600160a01b0316846001600160a01b0316148061168957506001600160a01b0380821660009081526005602090815260408083209388168352929052205460ff165b806116ad5750836001600160a01b03166116a284610766565b6001600160a01b0316145b949350505050565b826001600160a01b03166116c882610ae1565b6001600160a01b03161461172c5760405162461bcd60e51b815260206004820152602560248201527f4552433732313a207472616e736665722066726f6d20696e636f72726563742060448201526437bbb732b960d91b606482015260840161056a565b6001600160a01b03821661178e5760405162461bcd60e51b8152602060048201526024808201527f4552433732313a207472616e7366657220746f20746865207a65726f206164646044820152637265737360e01b606482015260840161056a565b611799838383611c1d565b6117a4600082611550565b6001600160a01b03831660009081526003602052604081208054600192906117cd908490612944565b90915550506001600160a01b03821660009081526003602052604081208054600192906117fb90849061295b565b909155505060008181526002602052604080822080546001600160a01b0319166001600160a01b0386811691821790925591518493918716917fddf252ad1be2c89b69c2b068fc378daa952ba7f163c4a11628f55a4df523b3ef91a4505050565b600a80546001600160a01b038381166001600160a01b0319831681179093556040519116919082907f8be0079c531659141344cd1fd0a4f28419497f9722a3daafe3b4186f6b6457e090600090a35050565b816001600160a01b0316836001600160a01b03160361190f5760405162461bcd60e51b815260206004820152601960248201527f4552433732313a20617070726f766520746f2063616c6c657200000000000000604482015260640161056a565b6001600160a01b03838116600081815260056020908152604080832094871680845294825291829020805460ff191686151590811790915591519182527f17307eab39ab6107e8899845ad3d59bd9653f200f220920489ca2b5937696c31910160405180910390a3505050565b610d4a828260405180602001604052806000815250611cd5565b6119a18484846116b5565b6119ad84848484611d08565b610cc35760405162461bcd60e51b815260040161056a90612973565b6060816000036119f05750506040805180820190915260018152600360fc1b602082015290565b8160005b8115611a1a5780611a0481612646565b9150611a139050600a836129db565b91506119f4565b60008167ffffffffffffffff811115611a3557611a35612360565b6040519080825280601f01601f191660200182016040528015611a5f576020820181803683370190505b5090505b84156116ad57611a74600183612944565b9150611a81600a866129ef565b611a8c90603061295b565b60f81b818381518110611aa157611aa16125de565b60200101906001600160f81b031916908160001a905350611ac3600a866129db565b9450611a63565b60608151600003611ae957505060408051602081019091526000815290565b6000604051806060016040528060408152602001612a746040913990506000600384516002611b18919061295b565b611b2291906129db565b611b2d90600461260a565b67ffffffffffffffff811115611b4557611b45612360565b6040519080825280601f01601f191660200182016040528015611b6f576020820181803683370190505b509050600182016020820185865187015b80821015611bdb576003820191508151603f8160121c168501518453600184019350603f81600c1c168501518453600184019350603f8160061c168501518453600184019350603f8116850151845350600183019250611b80565b5050600386510660018114611bf75760028114611c0a57611c12565b603d6001830353603d6002830353611c12565b603d60018303535b509195945050505050565b6001600160a01b038316611c7857611c7381600880546000838152600960205260408120829055600182018355919091527ff3f7a9fe364faab93b216da50a3214154f22a0a2b415b23a84c8169e8b636ee30155565b611c9b565b816001600160a01b0316836001600160a01b031614611c9b57611c9b8382611e09565b6001600160a01b038216611cb25761076181611ea6565b826001600160a01b0316826001600160a01b031614610761576107618282611f55565b611cdf8383611f99565b611cec6000848484611d08565b6107615760405162461bcd60e51b815260040161056a90612973565b60006001600160a01b0384163b15611dfe57604051630a85bd0160e11b81526001600160a01b0385169063150b7a0290611d4c903390899088908890600401612a03565b6020604051808303816000875af1925050508015611d87575060408051601f3d908101601f19168201909252611d8491810190612a40565b60015b611de4573d808015611db5576040519150601f19603f3d011682016040523d82523d6000602084013e611dba565b606091505b508051600003611ddc5760405162461bcd60e51b815260040161056a90612973565b805181602001fd5b6001600160e01b031916630a85bd0160e11b1490506116ad565b506001949350505050565b60006001611e1684610b58565b611e209190612944565b600083815260076020526040902054909150808214611e73576001600160a01b03841660009081526006602090815260408083208584528252808320548484528184208190558352600790915290208190555b5060009182526007602090815260408084208490556001600160a01b039094168352600681528383209183525290812055565b600854600090611eb890600190612944565b60008381526009602052604081205460088054939450909284908110611ee057611ee06125de565b906000526020600020015490508060088381548110611f0157611f016125de565b6000918252602080832090910192909255828152600990915260408082208490558582528120556008805480611f3957611f39612a5d565b6001900381819060005260206000200160009055905550505050565b6000611f6083610b58565b6001600160a01b039093166000908152600660209081526040808320868452825280832085905593825260079052919091209190915550565b6001600160a01b038216611fef5760405162461bcd60e51b815260206004820181905260248201527f4552433732313a206d696e7420746f20746865207a65726f2061646472657373604482015260640161056a565b6000818152600260205260409020546001600160a01b0316156120545760405162461bcd60e51b815260206004820152601c60248201527f4552433732313a20746f6b656e20616c7265616479206d696e74656400000000604482015260640161056a565b61206060008383611c1d565b6001600160a01b038216600090815260036020526040812080546001929061208990849061295b565b909155505060008181526002602052604080822080546001600160a01b0319166001600160a01b03861690811790915590518392907fddf252ad1be2c89b69c2b068fc378daa952ba7f163c4a11628f55a4df523b3ef908290a45050565b8280546120f3906125a4565b90600052602060002090601f016020900481019282612115576000855561215b565b82601f1061212e57805160ff191683800117855561215b565b8280016001018555821561215b579182015b8281111561215b578251825591602001919060010190612140565b5061216792915061216b565b5090565b5b80821115612167576000815560010161216c565b6001600160e01b03198116811461101957600080fd5b6000602082840312156121a857600080fd5b81356121b381612180565b9392505050565b60005b838110156121d55781810151838201526020016121bd565b83811115610cc35750506000910152565b600081518084526121fe8160208601602086016121ba565b601f01601f19169290920160200192915050565b6020815260006121b360208301846121e6565b6000806020838503121561223857600080fd5b823567ffffffffffffffff8082111561225057600080fd5b818501915085601f83011261226457600080fd5b81358181111561227357600080fd5b8660208260051b850101111561228857600080fd5b60209290920196919550909350505050565b6000602082840312156122ac57600080fd5b5035919050565b6001600160a01b038116811461101957600080fd5b600080604083850312156122db57600080fd5b82356122e6816122b3565b946020939093013593505050565b60008060006060848603121561230957600080fd5b8335612314816122b3565b92506020840135612324816122b3565b929592945050506040919091013590565b60006020828403121561234757600080fd5b81356121b3816122b3565b801515811461101957600080fd5b634e487b7160e01b600052604160045260246000fd5b600067ffffffffffffffff8084111561239157612391612360565b604051601f8501601f19908116603f011681019082821181831017156123b9576123b9612360565b816040528093508581528686860111156123d257600080fd5b858560208301376000602087830101525050509392505050565b600082601f8301126123fd57600080fd5b6121b383833560208501612376565b6000806000806080858703121561242257600080fd5b843561242d81612352565b9350602085013567ffffffffffffffff8082111561244a57600080fd5b612456888389016123ec565b9450604087013591508082111561246c57600080fd5b612478888389016123ec565b9350606087013591508082111561248e57600080fd5b5061249b878288016123ec565b91505092959194509250565b600080604083850312156124ba57600080fd5b82356124c5816122b3565b915060208301356124d581612352565b809150509250929050565b600080604083850312156124f357600080fd5b50508035926020909101359150565b6000806000806080858703121561251857600080fd5b8435612523816122b3565b93506020850135612533816122b3565b925060408501359150606085013567ffffffffffffffff81111561255657600080fd5b8501601f8101871361256757600080fd5b61249b87823560208401612376565b6000806040838503121561258957600080fd5b8235612594816122b3565b915060208301356124d5816122b3565b600181811c908216806125b857607f821691505b6020821081036125d857634e487b7160e01b600052602260045260246000fd5b50919050565b634e487b7160e01b600052603260045260246000fd5b634e487b7160e01b600052601160045260246000fd5b6000816000190483118215151615612624576126246125f4565b500290565b60006020828403121561263b57600080fd5b81516121b381612352565b600060018201612658576126586125f4565b5060010190565b6020808252818101527f4f776e61626c653a2063616c6c6572206973206e6f7420746865206f776e6572604082015260600190565b60208082526031908201527f4552433732313a207472616e736665722063616c6c6572206973206e6f74206f6040820152701ddb995c881b9bdc88185c1c1c9bdd9959607a1b606082015260800190565b6000602082840312156126f757600080fd5b5051919050565b600081516127108185602086016121ba565b9290920192915050565b693d913730b6b2911d101160b11b8152865160009061274081600a850160208c016121ba565b63010119d160e51b600a91840191820152875161276481600e840160208c016121ba565b7f222c20226465736372697074696f6e223a202252656465656d61626c6520666f600e929091019182015273391022b3b3b9909116101134b6b0b3b2911d101160611b602e82015286516127bf816042840160208b016121ba565b7f222c202261747472696275746573223a205b207b202274726169745f74797065604292909101918201527f223a2022456767732052656465656d61626c65222c202276616c7565223a200060628201526128f26128e26128cf6128dc8161289461288e612830608189018e6126fe565b7f7d2c207b2022646973706c61795f7479706522203a20224461746522202c227481527f726169745f74797065223a202249737375616e63652044617465222c202276616020820152650363ab2911d160d51b604082015260460190565b8b6126fe565b7f7d2c207b202274726169745f74797065223a20225072656d696e746564222c208152680113b30b63ab2911d160bd1b602082015260290190565b601160f91b815260010190565b876126fe565b637d205d7d60e01b815260040190565b9998505050505050505050565b7f646174613a6170706c69636174696f6e2f6a736f6e3b6261736536342c00000081526000825161293781601d8501602087016121ba565b91909101601d0192915050565b600082821015612956576129566125f4565b500390565b6000821982111561296e5761296e6125f4565b500190565b60208082526032908201527f4552433732313a207472616e7366657220746f206e6f6e20455243373231526560408201527131b2b4bb32b91034b6b83632b6b2b73a32b960711b606082015260800190565b634e487b7160e01b600052601260045260246000fd5b6000826129ea576129ea6129c5565b500490565b6000826129fe576129fe6129c5565b500690565b6001600160a01b0385811682528416602082015260408101839052608060608201819052600090612a36908301846121e6565b9695505050505050565b600060208284031215612a5257600080fd5b81516121b381612180565b634e487b7160e01b600052603160045260246000fdfe4142434445464748494a4b4c4d4e4f505152535455565758595a6162636465666768696a6b6c6d6e6f707172737475767778797a303132333435363738392b2fa26469706673582212206099337a910f632446de6719ea51e3bbac282be422962cd3ef3f746d6e023ddf64736f6c634300080e0033697066733a2f2f516d594445743138506764796f726163317643636372636a76734148574554777373777245324733656133453559697066733a2f2f516d54374b36724b746e48315a46455a4b64566555636531364c5a387353455958476d79726f3245755a46646a67697066733a2f2f516d66517a624841336247474d347651453532795277383774446150354341794a62317558797979716e66576a74697066733a2f2f516d64486b42473339755a6371664b6e333161515548655968316b783352333936567045357832364e556f523944697066733a2f2f516d624b357934793861385177315a6f773650477544525041723455475152334a51454c346e59574c4776426179697066733a2f2f516d61766f47386f386d5877594a464e4a5933666244443462337558556453753756325776504738723335793336",
  "linkReferences": {},
  "deployedLinkReferences": {}
}