{
  "_format": "hh-sol-artifact-1",
  "contractName": "VoucherIncubator",
  "sourceName": "contracts/VoucherIncubator.sol",
  "abi": [
    {
      "inputs": [
        {
          "internalType": "address",
          "name": "_initEGGCONTRACT",
          "type": "address"
        }
      ],
      "stateMutability": "nonpayable",
      "type": "constructor"
    },
    {
      "anonymous": false,
      "inputs": [
        {
          "indexed": true,
          "internalType": "address",
          "name": "owner",
          "type": "address"
        },
        {
          "indexed": true,
          "internalType": "address",
          "name": "approved",
          "type": "address"
        },
        {
          "indexed": true,
          "internalType": "uint256",
          "name": "tokenId",
          "type": "uint256"
        }
      ],
      "name": "Approval",
      "type": "event"
    },
    {
      "anonymous": false,
      "inputs": [
        {
          "indexed": true,
          "internalType": "address",
          "name": "owner",
          "type": "address"
        },
        {
          "indexed": true,
          "internalType": "address",
          "name": "operator",
          "type": "address"
        },
        {
          "indexed": false,
          "internalType": "bool",
          "name": "approved",
          "type": "bool"
        }
      ],
      "name": "ApprovalForAll",
      "type": "event"
    },
    {
      "anonymous": false,
      "inputs": [
        {
          "indexed": true,
          "internalType": "address",
          "name": "previousOwner",
          "type": "address"
        },
        {
          "indexed": true,
          "internalType": "address",
          "name": "newOwner",
          "type": "address"
        }
      ],
      "name": "OwnershipTransferred",
      "type": "event"
    },
    {
      "anonymous": false,
      "inputs": [
        {
          "indexed": true,
          "internalType": "address",
          "name": "from",
          "type": "address"
        },
        {
          "indexed": true,
          "internalType": "address",
          "name": "to",
          "type": "address"
        },
        {
          "indexed": true,
          "internalType": "uint256",
          "name": "tokenId",
          "type": "uint256"
        }
      ],
      "name": "Transfer",
      "type": "event"
    },
    {
      "anonymous": false,
      "inputs": [
        {
          "indexed": true,
          "internalType": "address",
          "name": "newVoucherHolder",
          "type": "address"
        },
        {
          "indexed": true,
          "internalType": "uint256",
          "name": "amountofRedeemableEggs",
          "type": "uint256"
        }
      ],
      "name": "newVoucherMinted",
      "type": "event"
    },
    {
      "inputs": [],
      "name": "EGGCONTRACT",
      "outputs": [
        {
          "internalType": "address",
          "name": "",
          "type": "address"
        }
      ],
      "stateMutability": "view",
      "type": "function"
    },
    {
      "inputs": [
        {
          "internalType": "uint256",
          "name": "",
          "type": "uint256"
        }
      ],
      "name": "VoucherList",
      "outputs": [
        {
          "internalType": "uint256",
          "name": "tokenID",
          "type": "uint256"
        },
        {
          "internalType": "uint256",
          "name": "redeemableEggs",
          "type": "uint256"
        },
        {
          "internalType": "uint256",
          "name": "IssuanceDate",
          "type": "uint256"
        },
        {
          "internalType": "bool",
          "name": "premintPaid",
          "type": "bool"
        }
      ],
      "stateMutability": "view",
      "type": "function"
    },
    {
      "inputs": [
        {
          "internalType": "address",
          "name": "to",
          "type": "address"
        },
        {
          "internalType": "uint256",
          "name": "tokenId",
          "type": "uint256"
        }
      ],
      "name": "approve",
      "outputs": [],
      "stateMutability": "nonpayable",
      "type": "function"
    },
    {
      "inputs": [
        {
          "internalType": "address",
          "name": "owner",
          "type": "address"
        }
      ],
      "name": "balanceOf",
      "outputs": [
        {
          "internalType": "uint256",
          "name": "",
          "type": "uint256"
        }
      ],
      "stateMutability": "view",
      "type": "function"
    },
    {
      "inputs": [
        {
          "internalType": "string",
          "name": "_newLinkvoucherArt",
          "type": "string"
        }
      ],
      "name": "changeArt",
      "outputs": [],
      "stateMutability": "nonpayable",
      "type": "function"
    },
    {
      "inputs": [
        {
          "internalType": "address",
          "name": "_newEggContractAddress",
          "type": "address"
        }
      ],
      "name": "changeEggContract",
      "outputs": [],
      "stateMutability": "nonpayable",
      "type": "function"
    },
    {
      "inputs": [],
      "name": "enablePremint",
      "outputs": [],
      "stateMutability": "nonpayable",
      "type": "function"
    },
    {
      "inputs": [
        {
          "internalType": "uint256",
          "name": "tokenId",
          "type": "uint256"
        }
      ],
      "name": "getApproved",
      "outputs": [
        {
          "internalType": "address",
          "name": "",
          "type": "address"
        }
      ],
      "stateMutability": "view",
      "type": "function"
    },
    {
      "inputs": [
        {
          "internalType": "uint256",
          "name": "_amountOfTickets",
          "type": "uint256"
        },
        {
          "internalType": "address",
          "name": "_receiver",
          "type": "address"
        }
      ],
      "name": "giveVoucherIncubator",
      "outputs": [],
      "stateMutability": "nonpayable",
      "type": "function"
    },
    {
      "inputs": [
        {
          "internalType": "address",
          "name": "owner",
          "type": "address"
        },
        {
          "internalType": "address",
          "name": "operator",
          "type": "address"
        }
      ],
      "name": "isApprovedForAll",
      "outputs": [
        {
          "internalType": "bool",
          "name": "",
          "type": "bool"
        }
      ],
      "stateMutability": "view",
      "type": "function"
    },
    {
      "inputs": [
        {
          "internalType": "uint256",
          "name": "_amountOfTickets",
          "type": "uint256"
        }
      ],
      "name": "mintVoucherNFT",
      "outputs": [],
      "stateMutability": "nonpayable",
      "type": "function"
    },
    {
      "inputs": [],
      "name": "name",
      "outputs": [
        {
          "internalType": "string",
          "name": "",
          "type": "string"
        }
      ],
      "stateMutability": "view",
      "type": "function"
    },
    {
      "inputs": [],
      "name": "owner",
      "outputs": [
        {
          "internalType": "address",
          "name": "",
          "type": "address"
        }
      ],
      "stateMutability": "view",
      "type": "function"
    },
    {
      "inputs": [
        {
          "internalType": "uint256",
          "name": "tokenId",
          "type": "uint256"
        }
      ],
      "name": "ownerOf",
      "outputs": [
        {
          "internalType": "address",
          "name": "",
          "type": "address"
        }
      ],
      "stateMutability": "view",
      "type": "function"
    },
    {
      "inputs": [],
      "name": "premintEnabled",
      "outputs": [
        {
          "internalType": "bool",
          "name": "",
          "type": "bool"
        }
      ],
      "stateMutability": "view",
      "type": "function"
    },
    {
      "inputs": [],
      "name": "renounceOwnership",
      "outputs": [],
      "stateMutability": "nonpayable",
      "type": "function"
    },
    {
      "inputs": [
        {
          "internalType": "address",
          "name": "from",
          "type": "address"
        },
        {
          "internalType": "address",
          "name": "to",
          "type": "address"
        },
        {
          "internalType": "uint256",
          "name": "tokenId",
          "type": "uint256"
        }
      ],
      "name": "safeTransferFrom",
      "outputs": [],
      "stateMutability": "nonpayable",
      "type": "function"
    },
    {
      "inputs": [
        {
          "internalType": "address",
          "name": "from",
          "type": "address"
        },
        {
          "internalType": "address",
          "name": "to",
          "type": "address"
        },
        {
          "internalType": "uint256",
          "name": "tokenId",
          "type": "uint256"
        },
        {
          "internalType": "bytes",
          "name": "_data",
          "type": "bytes"
        }
      ],
      "name": "safeTransferFrom",
      "outputs": [],
      "stateMutability": "nonpayable",
      "type": "function"
    },
    {
      "inputs": [
        {
          "internalType": "address",
          "name": "operator",
          "type": "address"
        },
        {
          "internalType": "bool",
          "name": "approved",
          "type": "bool"
        }
      ],
      "name": "setApprovalForAll",
      "outputs": [],
      "stateMutability": "nonpayable",
      "type": "function"
    },
    {
      "inputs": [
        {
          "internalType": "bytes4",
          "name": "interfaceId",
          "type": "bytes4"
        }
      ],
      "name": "supportsInterface",
      "outputs": [
        {
          "internalType": "bool",
          "name": "",
          "type": "bool"
        }
      ],
      "stateMutability": "view",
      "type": "function"
    },
    {
      "inputs": [],
      "name": "symbol",
      "outputs": [
        {
          "internalType": "string",
          "name": "",
          "type": "string"
        }
      ],
      "stateMutability": "view",
      "type": "function"
    },
    {
      "inputs": [
        {
          "internalType": "uint256",
          "name": "index",
          "type": "uint256"
        }
      ],
      "name": "tokenByIndex",
      "outputs": [
        {
          "internalType": "uint256",
          "name": "",
          "type": "uint256"
        }
      ],
      "stateMutability": "view",
      "type": "function"
    },
    {
      "inputs": [
        {
          "internalType": "address",
          "name": "owner",
          "type": "address"
        },
        {
          "internalType": "uint256",
          "name": "index",
          "type": "uint256"
        }
      ],
      "name": "tokenOfOwnerByIndex",
      "outputs": [
        {
          "internalType": "uint256",
          "name": "",
          "type": "uint256"
        }
      ],
      "stateMutability": "view",
      "type": "function"
    },
    {
      "inputs": [
        {
          "internalType": "uint256",
          "name": "_tokenId",
          "type": "uint256"
        }
      ],
      "name": "tokenURI",
      "outputs": [
        {
          "internalType": "string",
          "name": "",
          "type": "string"
        }
      ],
      "stateMutability": "view",
      "type": "function"
    },
    {
      "inputs": [],
      "name": "totalSupply",
      "outputs": [
        {
          "internalType": "uint256",
          "name": "",
          "type": "uint256"
        }
      ],
      "stateMutability": "view",
      "type": "function"
    },
    {
      "inputs": [
        {
          "internalType": "address",
          "name": "from",
          "type": "address"
        },
        {
          "internalType": "address",
          "name": "to",
          "type": "address"
        },
        {
          "internalType": "uint256",
          "name": "tokenId",
          "type": "uint256"
        }
      ],
      "name": "transferFrom",
      "outputs": [],
      "stateMutability": "nonpayable",
      "type": "function"
    },
    {
      "inputs": [
        {
          "internalType": "address",
          "name": "newOwner",
          "type": "address"
        }
      ],
      "name": "transferOwnership",
      "outputs": [],
      "stateMutability": "nonpayable",
      "type": "function"
    },
    {
      "inputs": [
        {
          "internalType": "contract IERC20",
          "name": "token",
          "type": "address"
        }
      ],
      "name": "withdrawErc20",
      "outputs": [],
      "stateMutability": "nonpayable",
      "type": "function"
    }
  ],
  "bytecode": "0x60e06040526035608081815290620028ed60a03980516200002991600b9160209091019062000185565b50600f805460ff1916905568056bc75e2d631000006010553480156200004e57600080fd5b50604051620029223803806200292283398101604081905262000071916200022b565b604080518082018252601b81527f4f6e65766572736520496e63756261746f7220566f756368657273000000000060208083019182528351808501909452600884526727ab16a4a721aaa160c11b908401528151919291620000d69160009162000185565b508051620000ec90600190602084019062000185565b50505062000109620001036200012f60201b60201c565b62000133565b600c80546001600160a01b0319166001600160a01b039290921691909117905562000299565b3390565b600a80546001600160a01b038381166001600160a01b0319831681179093556040519116919082907f8be0079c531659141344cd1fd0a4f28419497f9722a3daafe3b4186f6b6457e090600090a35050565b82805462000193906200025d565b90600052602060002090601f016020900481019282620001b7576000855562000202565b82601f10620001d257805160ff191683800117855562000202565b8280016001018555821562000202579182015b8281111562000202578251825591602001919060010190620001e5565b506200021092915062000214565b5090565b5b8082111562000210576000815560010162000215565b6000602082840312156200023e57600080fd5b81516001600160a01b03811681146200025657600080fd5b9392505050565b600181811c908216806200027257607f821691505b6020821081036200029357634e487b7160e01b600052602260045260246000fd5b50919050565b61264480620002a96000396000f3fe608060405234801561001057600080fd5b50600436106101c45760003560e01c806370a08231116100f9578063c7e42b1b11610097578063e397cefe11610071578063e397cefe146103ba578063e985e9c5146103cd578063f2fde38b14610409578063f42963d51461041c57600080fd5b8063c7e42b1b1461035f578063c87b56dd14610372578063cdebb41b1461038557600080fd5b806395d89b41116100d357806395d89b411461032957806397e5b2e214610331578063a22cb46514610339578063b88d4fde1461034c57600080fd5b806370a08231146102fd578063715018a6146103105780638da5cb5b1461031857600080fd5b80632f745c59116101665780634f6ccce7116101405780634f6ccce7146102b75780635089f7ff146102ca5780635cb4712c146102dd5780636352211e146102ea57600080fd5b80632f745c591461027e5780634123b4741461029157806342842e0e146102a457600080fd5b8063095ea7b3116101a2578063095ea7b3146102315780630f45eeee1461024657806318160ddd1461025957806323b872dd1461026b57600080fd5b806301ffc9a7146101c957806306fdde03146101f1578063081812fc14610206575b600080fd5b6101dc6101d7366004611db3565b61042f565b60405190151581526020015b60405180910390f35b6101f961045a565b6040516101e89190611e2f565b610219610214366004611e42565b6104ec565b6040516001600160a01b0390911681526020016101e8565b61024461023f366004611e70565b610586565b005b610244610254366004611e42565b61069b565b6008545b6040519081526020016101e8565b610244610279366004611e9c565b6107e9565b61025d61028c366004611e70565b61081a565b61024461029f366004611f69565b6108b0565b6102446102b2366004611e9c565b6108f1565b61025d6102c5366004611e42565b61090c565b6102446102d8366004611fb2565b61099f565b600f546101dc9060ff1681565b6102196102f8366004611e42565b6109eb565b61025d61030b366004611fb2565b610a62565b610244610ae9565b600a546001600160a01b0316610219565b6101f9610b1f565b610244610b2e565b610244610347366004611fdd565b610b67565b61024461035a366004612016565b610b72565b61024461036d366004611fb2565b610baa565b6101f9610380366004611e42565b610cf6565b610398610393366004611e42565b610ec0565b60408051948552602085019390935291830152151560608201526080016101e8565b6102446103c8366004612096565b610efd565b6101dc6103db3660046120bb565b6001600160a01b03918216600090815260056020908152604080832093909416825291909152205460ff1690565b610244610417366004611fb2565b610f61565b600c54610219906001600160a01b031681565b60006001600160e01b0319821663780e9d6360e01b1480610454575061045482610ff9565b92915050565b606060008054610469906120e9565b80601f0160208091040260200160405190810160405280929190818152602001828054610495906120e9565b80156104e25780601f106104b7576101008083540402835291602001916104e2565b820191906000526020600020905b8154815290600101906020018083116104c557829003601f168201915b5050505050905090565b6000818152600260205260408120546001600160a01b031661056a5760405162461bcd60e51b815260206004820152602c60248201527f4552433732313a20617070726f76656420717565727920666f72206e6f6e657860448201526b34b9ba32b73a103a37b5b2b760a11b60648201526084015b60405180910390fd5b506000908152600460205260409020546001600160a01b031690565b6000610591826109eb565b9050806001600160a01b0316836001600160a01b0316036105fe5760405162461bcd60e51b815260206004820152602160248201527f4552433732313a20617070726f76616c20746f2063757272656e74206f776e656044820152603960f91b6064820152608401610561565b336001600160a01b038216148061061a575061061a81336103db565b61068c5760405162461bcd60e51b815260206004820152603860248201527f4552433732313a20617070726f76652063616c6c6572206973206e6f74206f7760448201527f6e6572206e6f7220617070726f76656420666f7220616c6c00000000000000006064820152608401610561565b6106968383611049565b505050565b600a546001600160a01b031633146106c55760405162461bcd60e51b815260040161056190612123565b60006106d0600e5490565b905060005b82811015610696576106e733836110b7565b6106f5600e80546001019055565b600e546040805160808101825282815260016020820181815242938301938452600060608401818152600d8054948501815590915292517fd7b6990105719101dabeb77144f2a3385c8033acd3af97e9423a695e81ad1eb5600490930292830155517fd7b6990105719101dabeb77144f2a3385c8033acd3af97e9423a695e81ad1eb682015591517fd7b6990105719101dabeb77144f2a3385c8033acd3af97e9423a695e81ad1eb7830155517fd7b6990105719101dabeb77144f2a3385c8033acd3af97e9423a695e81ad1eb8909101805460ff19169115159190911790559150806107e18161216e565b9150506106d5565b6107f333826110d1565b61080f5760405162461bcd60e51b815260040161056190612187565b6106968383836111c8565b600061082583610a62565b82106108875760405162461bcd60e51b815260206004820152602b60248201527f455243373231456e756d657261626c653a206f776e657220696e646578206f7560448201526a74206f6620626f756e647360a81b6064820152608401610561565b506001600160a01b03919091166000908152600660209081526040808320938352929052205490565b600a546001600160a01b031633146108da5760405162461bcd60e51b815260040161056190612123565b80516108ed90600b906020840190611d04565b5050565b61069683838360405180602001604052806000815250610b72565b600061091760085490565b821061097a5760405162461bcd60e51b815260206004820152602c60248201527f455243373231456e756d657261626c653a20676c6f62616c20696e646578206f60448201526b7574206f6620626f756e647360a01b6064820152608401610561565b6008828154811061098d5761098d6121d8565b90600052602060002001549050919050565b600a546001600160a01b031633146109c95760405162461bcd60e51b815260040161056190612123565b600c80546001600160a01b0319166001600160a01b0392909216919091179055565b6000818152600260205260408120546001600160a01b0316806104545760405162461bcd60e51b815260206004820152602960248201527f4552433732313a206f776e657220717565727920666f72206e6f6e657869737460448201526832b73a103a37b5b2b760b91b6064820152608401610561565b60006001600160a01b038216610acd5760405162461bcd60e51b815260206004820152602a60248201527f4552433732313a2062616c616e636520717565727920666f7220746865207a65604482015269726f206164647265737360b01b6064820152608401610561565b506001600160a01b031660009081526003602052604090205490565b600a546001600160a01b03163314610b135760405162461bcd60e51b815260040161056190612123565b610b1d600061136f565b565b606060018054610469906120e9565b600a546001600160a01b03163314610b585760405162461bcd60e51b815260040161056190612123565b600f805460ff19166001179055565b6108ed3383836113c1565b610b7c33836110d1565b610b985760405162461bcd60e51b815260040161056190612187565b610ba48484848461148f565b50505050565b600a546001600160a01b03163314610bd45760405162461bcd60e51b815260040161056190612123565b6040516370a0823160e01b81523060048201526001600160a01b0382169063a9059cbb90339083906370a0823190602401602060405180830381865afa158015610c22573d6000803e3d6000fd5b505050506040513d601f19601f82011682018060405250810190610c4691906121ee565b6040516001600160e01b031960e085901b1681526001600160a01b03909216600483015260248201526044016020604051808303816000875af1158015610c91573d6000803e3d6000fd5b505050506040513d601f19601f82011682018060405250810190610cb59190612207565b610cf35760405162461bcd60e51b815260206004820152600f60248201526e151c985b9cd9995c8819985a5b1959608a1b6044820152606401610561565b50565b60606000600d8381548110610d0d57610d0d6121d8565b600091825260208083206040805160808101825260049094029091018054845260018101549284018390526002810154918401919091526003015460ff1615156060830152909250610d5e906114c2565b905060606000600b8054610d71906120e9565b80601f0160208091040260200160405190810160405280929190818152602001828054610d9d906120e9565b8015610dea5780601f10610dbf57610100808354040283529160200191610dea565b820191906000526020600020905b815481529060010190602001808311610dcd57829003601f168201915b505050505090506000610e0085604001516114c2565b90506000604051806040016040528060028152602001616e6f60f01b81525090506040518060400160405280601581526020017422b3b39024b731bab130ba37b9102b37bab1b432b960591b81525093506000610e8d85610e608b6114c2565b86898787604051602001610e7996959493929190612240565b6040516020818303038152906040526115c3565b9050600081604051602001610ea2919061243b565b60408051601f198184030181529190529a9950505050505050505050565b600d8181548110610ed057600080fd5b60009182526020909120600490910201805460018201546002830154600390930154919350919060ff1684565b600c546001600160a01b03163314610f575760405162461bcd60e51b815260206004820152601d60248201527f4e6f74207468652045676720436f6e74726163742043616c6c696e67210000006044820152606401610561565b6108ed8282611716565b600a546001600160a01b03163314610f8b5760405162461bcd60e51b815260040161056190612123565b6001600160a01b038116610ff05760405162461bcd60e51b815260206004820152602660248201527f4f776e61626c653a206e6577206f776e657220697320746865207a65726f206160448201526564647265737360d01b6064820152608401610561565b610cf38161136f565b60006001600160e01b031982166380ac58cd60e01b148061102a57506001600160e01b03198216635b5e139f60e01b145b8061045457506301ffc9a760e01b6001600160e01b0319831614610454565b600081815260046020526040902080546001600160a01b0319166001600160a01b038416908117909155819061107e826109eb565b6001600160a01b03167f8c5be1e5ebec7d5bd14f71427d1e84f3dd0314c0f7b2291e5b200ac8c7c3b92560405160405180910390a45050565b6108ed82826040518060200160405280600081525061183a565b6000818152600260205260408120546001600160a01b031661114a5760405162461bcd60e51b815260206004820152602c60248201527f4552433732313a206f70657261746f7220717565727920666f72206e6f6e657860448201526b34b9ba32b73a103a37b5b2b760a11b6064820152608401610561565b6000611155836109eb565b9050806001600160a01b0316846001600160a01b0316148061119c57506001600160a01b0380821660009081526005602090815260408083209388168352929052205460ff165b806111c05750836001600160a01b03166111b5846104ec565b6001600160a01b0316145b949350505050565b826001600160a01b03166111db826109eb565b6001600160a01b03161461123f5760405162461bcd60e51b815260206004820152602560248201527f4552433732313a207472616e736665722066726f6d20696e636f72726563742060448201526437bbb732b960d91b6064820152608401610561565b6001600160a01b0382166112a15760405162461bcd60e51b8152602060048201526024808201527f4552433732313a207472616e7366657220746f20746865207a65726f206164646044820152637265737360e01b6064820152608401610561565b6112ac83838361186d565b6112b7600082611049565b6001600160a01b03831660009081526003602052604081208054600192906112e0908490612480565b90915550506001600160a01b038216600090815260036020526040812080546001929061130e908490612497565b909155505060008181526002602052604080822080546001600160a01b0319166001600160a01b0386811691821790925591518493918716917fddf252ad1be2c89b69c2b068fc378daa952ba7f163c4a11628f55a4df523b3ef91a4505050565b600a80546001600160a01b038381166001600160a01b0319831681179093556040519116919082907f8be0079c531659141344cd1fd0a4f28419497f9722a3daafe3b4186f6b6457e090600090a35050565b816001600160a01b0316836001600160a01b0316036114225760405162461bcd60e51b815260206004820152601960248201527f4552433732313a20617070726f766520746f2063616c6c6572000000000000006044820152606401610561565b6001600160a01b03838116600081815260056020908152604080832094871680845294825291829020805460ff191686151590811790915591519182527f17307eab39ab6107e8899845ad3d59bd9653f200f220920489ca2b5937696c31910160405180910390a3505050565b61149a8484846111c8565b6114a684848484611925565b610ba45760405162461bcd60e51b8152600401610561906124af565b6060816000036114e95750506040805180820190915260018152600360fc1b602082015290565b8160005b811561151357806114fd8161216e565b915061150c9050600a83612517565b91506114ed565b60008167ffffffffffffffff81111561152e5761152e611edd565b6040519080825280601f01601f191660200182016040528015611558576020820181803683370190505b5090505b84156111c05761156d600183612480565b915061157a600a8661252b565b611585906030612497565b60f81b81838151811061159a5761159a6121d8565b60200101906001600160f81b031916908160001a9053506115bc600a86612517565b945061155c565b606081516000036115e257505060408051602081019091526000815290565b60006040518060600160405280604081526020016125cf60409139905060006003845160026116119190612497565b61161b9190612517565b61162690600461253f565b67ffffffffffffffff81111561163e5761163e611edd565b6040519080825280601f01601f191660200182016040528015611668576020820181803683370190505b509050600182016020820185865187015b808210156116d4576003820191508151603f8160121c168501518453600184019350603f81600c1c168501518453600184019350603f8160061c168501518453600184019350603f8116850151845350600183019250611679565b50506003865106600181146116f057600281146117035761170b565b603d6001830353603d600283035361170b565b603d60018303535b509195945050505050565b6000611721600e5490565b905060005b83811015610ba45761173883836110b7565b611746600e80546001019055565b600e546040805160808101825282815260016020820181815242938301938452600060608401818152600d8054948501815590915292517fd7b6990105719101dabeb77144f2a3385c8033acd3af97e9423a695e81ad1eb5600490930292830155517fd7b6990105719101dabeb77144f2a3385c8033acd3af97e9423a695e81ad1eb682015591517fd7b6990105719101dabeb77144f2a3385c8033acd3af97e9423a695e81ad1eb7830155517fd7b6990105719101dabeb77144f2a3385c8033acd3af97e9423a695e81ad1eb8909101805460ff19169115159190911790559150806118328161216e565b915050611726565b6118448383611a26565b6118516000848484611925565b6106965760405162461bcd60e51b8152600401610561906124af565b6001600160a01b0383166118c8576118c381600880546000838152600960205260408120829055600182018355919091527ff3f7a9fe364faab93b216da50a3214154f22a0a2b415b23a84c8169e8b636ee30155565b6118eb565b816001600160a01b0316836001600160a01b0316146118eb576118eb8382611b74565b6001600160a01b0382166119025761069681611c11565b826001600160a01b0316826001600160a01b031614610696576106968282611cc0565b60006001600160a01b0384163b15611a1b57604051630a85bd0160e11b81526001600160a01b0385169063150b7a029061196990339089908890889060040161255e565b6020604051808303816000875af19250505080156119a4575060408051601f3d908101601f191682019092526119a19181019061259b565b60015b611a01573d8080156119d2576040519150601f19603f3d011682016040523d82523d6000602084013e6119d7565b606091505b5080516000036119f95760405162461bcd60e51b8152600401610561906124af565b805181602001fd5b6001600160e01b031916630a85bd0160e11b1490506111c0565b506001949350505050565b6001600160a01b038216611a7c5760405162461bcd60e51b815260206004820181905260248201527f4552433732313a206d696e7420746f20746865207a65726f20616464726573736044820152606401610561565b6000818152600260205260409020546001600160a01b031615611ae15760405162461bcd60e51b815260206004820152601c60248201527f4552433732313a20746f6b656e20616c7265616479206d696e746564000000006044820152606401610561565b611aed6000838361186d565b6001600160a01b0382166000908152600360205260408120805460019290611b16908490612497565b909155505060008181526002602052604080822080546001600160a01b0319166001600160a01b03861690811790915590518392907fddf252ad1be2c89b69c2b068fc378daa952ba7f163c4a11628f55a4df523b3ef908290a45050565b60006001611b8184610a62565b611b8b9190612480565b600083815260076020526040902054909150808214611bde576001600160a01b03841660009081526006602090815260408083208584528252808320548484528184208190558352600790915290208190555b5060009182526007602090815260408084208490556001600160a01b039094168352600681528383209183525290812055565b600854600090611c2390600190612480565b60008381526009602052604081205460088054939450909284908110611c4b57611c4b6121d8565b906000526020600020015490508060088381548110611c6c57611c6c6121d8565b6000918252602080832090910192909255828152600990915260408082208490558582528120556008805480611ca457611ca46125b8565b6001900381819060005260206000200160009055905550505050565b6000611ccb83610a62565b6001600160a01b039093166000908152600660209081526040808320868452825280832085905593825260079052919091209190915550565b828054611d10906120e9565b90600052602060002090601f016020900481019282611d325760008555611d78565b82601f10611d4b57805160ff1916838001178555611d78565b82800160010185558215611d78579182015b82811115611d78578251825591602001919060010190611d5d565b50611d84929150611d88565b5090565b5b80821115611d845760008155600101611d89565b6001600160e01b031981168114610cf357600080fd5b600060208284031215611dc557600080fd5b8135611dd081611d9d565b9392505050565b60005b83811015611df2578181015183820152602001611dda565b83811115610ba45750506000910152565b60008151808452611e1b816020860160208601611dd7565b601f01601f19169290920160200192915050565b602081526000611dd06020830184611e03565b600060208284031215611e5457600080fd5b5035919050565b6001600160a01b0381168114610cf357600080fd5b60008060408385031215611e8357600080fd5b8235611e8e81611e5b565b946020939093013593505050565b600080600060608486031215611eb157600080fd5b8335611ebc81611e5b565b92506020840135611ecc81611e5b565b929592945050506040919091013590565b634e487b7160e01b600052604160045260246000fd5b600067ffffffffffffffff80841115611f0e57611f0e611edd565b604051601f8501601f19908116603f01168101908282118183101715611f3657611f36611edd565b81604052809350858152868686011115611f4f57600080fd5b858560208301376000602087830101525050509392505050565b600060208284031215611f7b57600080fd5b813567ffffffffffffffff811115611f9257600080fd5b8201601f81018413611fa357600080fd5b6111c084823560208401611ef3565b600060208284031215611fc457600080fd5b8135611dd081611e5b565b8015158114610cf357600080fd5b60008060408385031215611ff057600080fd5b8235611ffb81611e5b565b9150602083013561200b81611fcf565b809150509250929050565b6000806000806080858703121561202c57600080fd5b843561203781611e5b565b9350602085013561204781611e5b565b925060408501359150606085013567ffffffffffffffff81111561206a57600080fd5b8501601f8101871361207b57600080fd5b61208a87823560208401611ef3565b91505092959194509250565b600080604083850312156120a957600080fd5b82359150602083013561200b81611e5b565b600080604083850312156120ce57600080fd5b82356120d981611e5b565b9150602083013561200b81611e5b565b600181811c908216806120fd57607f821691505b60208210810361211d57634e487b7160e01b600052602260045260246000fd5b50919050565b6020808252818101527f4f776e61626c653a2063616c6c6572206973206e6f7420746865206f776e6572604082015260600190565b634e487b7160e01b600052601160045260246000fd5b60006001820161218057612180612158565b5060010190565b60208082526031908201527f4552433732313a207472616e736665722063616c6c6572206973206e6f74206f6040820152701ddb995c881b9bdc88185c1c1c9bdd9959607a1b606082015260800190565b634e487b7160e01b600052603260045260246000fd5b60006020828403121561220057600080fd5b5051919050565b60006020828403121561221957600080fd5b8151611dd081611fcf565b60008151612236818560208601611dd7565b9290920192915050565b693d913730b6b2911d101160b11b8152865160009061226681600a850160208c01611dd7565b63010119d160e51b600a91840191820152875161228a81600e840160208c01611dd7565b7f222c20226465736372697074696f6e223a202252656465656d61626c6520666f600e92909101918201527f7220616e20496e63756261746f7221222c2022696d616765223a202200000000602e82015286516122ee81604a840160208b01611dd7565b7f222c202261747472696275746573223a205b207b202274726169745f74797065604a92909101918201527f223a2022496e63756261746f72732052656465656d61626c65222c202276616c606a8201526403ab2911d160dd1b608a82015261242e61241e61240b612418816123d16123cb61236d608f89018e612224565b7f7d2c207b2022646973706c61795f7479706522203a20224461746522202c227481527f726169745f74797065223a202249737375616e63652044617465222c202276616020820152650363ab2911d160d51b604082015260460190565b8b612224565b7f7d2c207b202274726169745f74797065223a202252656465656d6564222c202281526703b30b63ab2911d160c51b602082015260280190565b601160f91b815260010190565b87612224565b637d205d7d60e01b815260040190565b9998505050505050505050565b7f646174613a6170706c69636174696f6e2f6a736f6e3b6261736536342c00000081526000825161247381601d850160208701611dd7565b91909101601d0192915050565b60008282101561249257612492612158565b500390565b600082198211156124aa576124aa612158565b500190565b60208082526032908201527f4552433732313a207472616e7366657220746f206e6f6e20455243373231526560408201527131b2b4bb32b91034b6b83632b6b2b73a32b960711b606082015260800190565b634e487b7160e01b600052601260045260246000fd5b60008261252657612526612501565b500490565b60008261253a5761253a612501565b500690565b600081600019048311821515161561255957612559612158565b500290565b6001600160a01b038581168252841660208201526040810183905260806060820181905260009061259190830184611e03565b9695505050505050565b6000602082840312156125ad57600080fd5b8151611dd081611d9d565b634e487b7160e01b600052603160045260246000fdfe4142434445464748494a4b4c4d4e4f505152535455565758595a6162636465666768696a6b6c6d6e6f707172737475767778797a303132333435363738392b2fa264697066735822122006a1e1cf3414209bb6a17a2e75760d7c9dd359c9bdd1dafb2d51e21ce68ce7cf64736f6c634300080e0033697066733a2f2f516d61766f47386f386d5877594a464e4a5933666244443462337558556453753756325776504738723335793336",
  "linkReferences": {},
  "deployedLinkReferences": {}
}