{
  "_format": "hh-sol-artifact-1",
  "contractName": "Eggs",
  "sourceName": "contracts/Eggs.sol",
  "abi": [
    {
      "inputs": [
        {
          "internalType": "address",
          "name": "_grav",
          "type": "address"
        },
        {
          "internalType": "address",
          "name": "_usdc",
          "type": "address"
        },
        {
          "internalType": "address",
          "name": "_wlvoucher",
          "type": "address"
        },
        {
          "internalType": "address",
          "name": "_incubators",
          "type": "address"
        },
        {
          "internalType": "address",
          "name": "_paymentReceiver",
          "type": "address"
        },
        {
          "internalType": "address",
          "name": "_coordinator",
          "type": "address"
        },
        {
          "internalType": "uint64",
          "name": "subscriptionId",
          "type": "uint64"
        }
      ],
      "stateMutability": "nonpayable",
      "type": "constructor"
    },
    {
      "inputs": [
        {
          "internalType": "address",
          "name": "have",
          "type": "address"
        },
        {
          "internalType": "address",
          "name": "want",
          "type": "address"
        }
      ],
      "name": "OnlyCoordinatorCanFulfill",
      "type": "error"
    },
    {
      "anonymous": false,
      "inputs": [
        {
          "indexed": true,
          "internalType": "address",
          "name": "owner",
          "type": "address"
        },
        {
          "indexed": true,
          "internalType": "address",
          "name": "approved",
          "type": "address"
        },
        {
          "indexed": true,
          "internalType": "uint256",
          "name": "tokenId",
          "type": "uint256"
        }
      ],
      "name": "Approval",
      "type": "event"
    },
    {
      "anonymous": false,
      "inputs": [
        {
          "indexed": true,
          "internalType": "address",
          "name": "owner",
          "type": "address"
        },
        {
          "indexed": true,
          "internalType": "address",
          "name": "operator",
          "type": "address"
        },
        {
          "indexed": false,
          "internalType": "bool",
          "name": "approved",
          "type": "bool"
        }
      ],
      "name": "ApprovalForAll",
      "type": "event"
    },
    {
      "anonymous": false,
      "inputs": [
        {
          "indexed": true,
          "internalType": "address",
          "name": "previousOwner",
          "type": "address"
        },
        {
          "indexed": true,
          "internalType": "address",
          "name": "newOwner",
          "type": "address"
        }
      ],
      "name": "OwnershipTransferred",
      "type": "event"
    },
    {
      "anonymous": false,
      "inputs": [
        {
          "indexed": true,
          "internalType": "address",
          "name": "from",
          "type": "address"
        },
        {
          "indexed": true,
          "internalType": "address",
          "name": "to",
          "type": "address"
        },
        {
          "indexed": true,
          "internalType": "uint256",
          "name": "tokenId",
          "type": "uint256"
        }
      ],
      "name": "Transfer",
      "type": "event"
    },
    {
      "inputs": [
        {
          "internalType": "uint256",
          "name": "",
          "type": "uint256"
        }
      ],
      "name": "BACKGROUNDRARITY",
      "outputs": [
        {
          "internalType": "uint256",
          "name": "",
          "type": "uint256"
        }
      ],
      "stateMutability": "view",
      "type": "function"
    },
    {
      "inputs": [
        {
          "internalType": "uint256",
          "name": "",
          "type": "uint256"
        }
      ],
      "name": "BREEDRARITY",
      "outputs": [
        {
          "internalType": "uint256",
          "name": "",
          "type": "uint256"
        }
      ],
      "stateMutability": "view",
      "type": "function"
    },
    {
      "inputs": [
        {
          "internalType": "uint256",
          "name": "",
          "type": "uint256"
        }
      ],
      "name": "BgColor",
      "outputs": [
        {
          "internalType": "string",
          "name": "",
          "type": "string"
        }
      ],
      "stateMutability": "view",
      "type": "function"
    },
    {
      "inputs": [
        {
          "internalType": "uint256",
          "name": "",
          "type": "uint256"
        }
      ],
      "name": "BreedName",
      "outputs": [
        {
          "internalType": "string",
          "name": "",
          "type": "string"
        }
      ],
      "stateMutability": "view",
      "type": "function"
    },
    {
      "inputs": [
        {
          "internalType": "uint256",
          "name": "",
          "type": "uint256"
        }
      ],
      "name": "CAPSULERARITY",
      "outputs": [
        {
          "internalType": "uint256",
          "name": "",
          "type": "uint256"
        }
      ],
      "stateMutability": "view",
      "type": "function"
    },
    {
      "inputs": [
        {
          "internalType": "uint256",
          "name": "",
          "type": "uint256"
        },
        {
          "internalType": "uint256",
          "name": "",
          "type": "uint256"
        }
      ],
      "name": "COLOURRARITY",
      "outputs": [
        {
          "internalType": "uint256",
          "name": "",
          "type": "uint256"
        }
      ],
      "stateMutability": "view",
      "type": "function"
    },
    {
      "inputs": [
        {
          "internalType": "uint256",
          "name": "",
          "type": "uint256"
        }
      ],
      "name": "CapsuleColor",
      "outputs": [
        {
          "internalType": "string",
          "name": "",
          "type": "string"
        }
      ],
      "stateMutability": "view",
      "type": "function"
    },
    {
      "inputs": [
        {
          "internalType": "uint256",
          "name": "",
          "type": "uint256"
        }
      ],
      "name": "EggColor",
      "outputs": [
        {
          "internalType": "string",
          "name": "",
          "type": "string"
        }
      ],
      "stateMutability": "view",
      "type": "function"
    },
    {
      "inputs": [
        {
          "internalType": "uint256",
          "name": "",
          "type": "uint256"
        }
      ],
      "name": "EggsMetadata",
      "outputs": [
        {
          "internalType": "uint256",
          "name": "Breed",
          "type": "uint256"
        },
        {
          "internalType": "uint256",
          "name": "EggColour",
          "type": "uint256"
        },
        {
          "internalType": "uint256",
          "name": "FogColour",
          "type": "uint256"
        },
        {
          "internalType": "uint256",
          "name": "BackgroundColour",
          "type": "uint256"
        },
        {
          "internalType": "bool",
          "name": "hasIncubator",
          "type": "bool"
        },
        {
          "internalType": "uint256",
          "name": "incubatorColour",
          "type": "uint256"
        },
        {
          "internalType": "uint256",
          "name": "incubatorLevel",
          "type": "uint256"
        },
        {
          "internalType": "bool",
          "name": "wasPreminted",
          "type": "bool"
        }
      ],
      "stateMutability": "view",
      "type": "function"
    },
    {
      "inputs": [
        {
          "internalType": "uint256",
          "name": "",
          "type": "uint256"
        }
      ],
      "name": "FOGRARITY",
      "outputs": [
        {
          "internalType": "uint256",
          "name": "",
          "type": "uint256"
        }
      ],
      "stateMutability": "view",
      "type": "function"
    },
    {
      "inputs": [
        {
          "internalType": "uint256",
          "name": "",
          "type": "uint256"
        }
      ],
      "name": "FogColor",
      "outputs": [
        {
          "internalType": "string",
          "name": "",
          "type": "string"
        }
      ],
      "stateMutability": "view",
      "type": "function"
    },
    {
      "inputs": [],
      "name": "Phase1",
      "outputs": [
        {
          "internalType": "bool",
          "name": "",
          "type": "bool"
        }
      ],
      "stateMutability": "view",
      "type": "function"
    },
    {
      "inputs": [
        {
          "internalType": "address",
          "name": "to",
          "type": "address"
        },
        {
          "internalType": "uint256",
          "name": "tokenId",
          "type": "uint256"
        }
      ],
      "name": "approve",
      "outputs": [],
      "stateMutability": "nonpayable",
      "type": "function"
    },
    {
      "inputs": [
        {
          "internalType": "address",
          "name": "owner",
          "type": "address"
        }
      ],
      "name": "balanceOf",
      "outputs": [
        {
          "internalType": "uint256",
          "name": "",
          "type": "uint256"
        }
      ],
      "stateMutability": "view",
      "type": "function"
    },
    {
      "inputs": [],
      "name": "baseURI",
      "outputs": [
        {
          "internalType": "string",
          "name": "",
          "type": "string"
        }
      ],
      "stateMutability": "view",
      "type": "function"
    },
    {
      "inputs": [
        {
          "internalType": "uint256[]",
          "name": "_tokenIdsEggs",
          "type": "uint256[]"
        }
      ],
      "name": "buyIncubator",
      "outputs": [],
      "stateMutability": "nonpayable",
      "type": "function"
    },
    {
      "inputs": [
        {
          "internalType": "uint256",
          "name": "tokenId",
          "type": "uint256"
        }
      ],
      "name": "getApproved",
      "outputs": [
        {
          "internalType": "address",
          "name": "",
          "type": "address"
        }
      ],
      "stateMutability": "view",
      "type": "function"
    },
    {
      "inputs": [
        {
          "internalType": "uint256",
          "name": "",
          "type": "uint256"
        }
      ],
      "name": "gravFee",
      "outputs": [
        {
          "internalType": "uint256",
          "name": "",
          "type": "uint256"
        }
      ],
      "stateMutability": "view",
      "type": "function"
    },
    {
      "inputs": [],
      "name": "imageFileType",
      "outputs": [
        {
          "internalType": "string",
          "name": "",
          "type": "string"
        }
      ],
      "stateMutability": "view",
      "type": "function"
    },
    {
      "inputs": [],
      "name": "incubatorFee",
      "outputs": [
        {
          "internalType": "uint256",
          "name": "",
          "type": "uint256"
        }
      ],
      "stateMutability": "view",
      "type": "function"
    },
    {
      "inputs": [],
      "name": "incubatorSale",
      "outputs": [
        {
          "internalType": "bool",
          "name": "",
          "type": "bool"
        }
      ],
      "stateMutability": "view",
      "type": "function"
    },
    {
      "inputs": [
        {
          "internalType": "address",
          "name": "owner",
          "type": "address"
        },
        {
          "internalType": "address",
          "name": "operator",
          "type": "address"
        }
      ],
      "name": "isApprovedForAll",
      "outputs": [
        {
          "internalType": "bool",
          "name": "",
          "type": "bool"
        }
      ],
      "stateMutability": "view",
      "type": "function"
    },
    {
      "inputs": [
        {
          "internalType": "uint256[]",
          "name": "_whitelistID",
          "type": "uint256[]"
        },
        {
          "internalType": "bool",
          "name": "USDC_Payment",
          "type": "bool"
        }
      ],
      "name": "mint",
      "outputs": [],
      "stateMutability": "nonpayable",
      "type": "function"
    },
    {
      "inputs": [],
      "name": "name",
      "outputs": [
        {
          "internalType": "string",
          "name": "",
          "type": "string"
        }
      ],
      "stateMutability": "view",
      "type": "function"
    },
    {
      "inputs": [],
      "name": "owner",
      "outputs": [
        {
          "internalType": "address",
          "name": "",
          "type": "address"
        }
      ],
      "stateMutability": "view",
      "type": "function"
    },
    {
      "inputs": [
        {
          "internalType": "uint256",
          "name": "tokenId",
          "type": "uint256"
        }
      ],
      "name": "ownerOf",
      "outputs": [
        {
          "internalType": "address",
          "name": "",
          "type": "address"
        }
      ],
      "stateMutability": "view",
      "type": "function"
    },
    {
      "inputs": [],
      "name": "paymentReceiver",
      "outputs": [
        {
          "internalType": "address",
          "name": "",
          "type": "address"
        }
      ],
      "stateMutability": "view",
      "type": "function"
    },
    {
      "inputs": [
        {
          "internalType": "uint256",
          "name": "_mintAmount",
          "type": "uint256"
        },
        {
          "internalType": "bool",
          "name": "USDC_Payment",
          "type": "bool"
        }
      ],
      "name": "publicMint",
      "outputs": [],
      "stateMutability": "nonpayable",
      "type": "function"
    },
    {
      "inputs": [
        {
          "internalType": "uint256",
          "name": "requestId",
          "type": "uint256"
        },
        {
          "internalType": "uint256[]",
          "name": "randomWords",
          "type": "uint256[]"
        }
      ],
      "name": "rawFulfillRandomWords",
      "outputs": [],
      "stateMutability": "nonpayable",
      "type": "function"
    },
    {
      "inputs": [
        {
          "internalType": "uint256[]",
          "name": "_tokenIdsEggs",
          "type": "uint256[]"
        },
        {
          "internalType": "uint256[]",
          "name": "_tokenIdsVouchers",
          "type": "uint256[]"
        }
      ],
      "name": "redeemIncubator",
      "outputs": [],
      "stateMutability": "nonpayable",
      "type": "function"
    },
    {
      "inputs": [],
      "name": "renounceOwnership",
      "outputs": [],
      "stateMutability": "nonpayable",
      "type": "function"
    },
    {
      "inputs": [
        {
          "internalType": "address",
          "name": "",
          "type": "address"
        },
        {
          "internalType": "uint256",
          "name": "",
          "type": "uint256"
        }
      ],
      "name": "requestMapper",
      "outputs": [
        {
          "internalType": "uint256",
          "name": "",
          "type": "uint256"
        }
      ],
      "stateMutability": "view",
      "type": "function"
    },
    {
      "inputs": [
        {
          "internalType": "uint256",
          "name": "",
          "type": "uint256"
        },
        {
          "internalType": "uint256",
          "name": "",
          "type": "uint256"
        }
      ],
      "name": "requestToEggs",
      "outputs": [
        {
          "internalType": "uint256",
          "name": "",
          "type": "uint256"
        }
      ],
      "stateMutability": "view",
      "type": "function"
    },
    {
      "inputs": [
        {
          "internalType": "address",
          "name": "from",
          "type": "address"
        },
        {
          "internalType": "address",
          "name": "to",
          "type": "address"
        },
        {
          "internalType": "uint256",
          "name": "tokenId",
          "type": "uint256"
        }
      ],
      "name": "safeTransferFrom",
      "outputs": [],
      "stateMutability": "nonpayable",
      "type": "function"
    },
    {
      "inputs": [
        {
          "internalType": "address",
          "name": "from",
          "type": "address"
        },
        {
          "internalType": "address",
          "name": "to",
          "type": "address"
        },
        {
          "internalType": "uint256",
          "name": "tokenId",
          "type": "uint256"
        },
        {
          "internalType": "bytes",
          "name": "_data",
          "type": "bytes"
        }
      ],
      "name": "safeTransferFrom",
      "outputs": [],
      "stateMutability": "nonpayable",
      "type": "function"
    },
    {
      "inputs": [
        {
          "internalType": "address",
          "name": "operator",
          "type": "address"
        },
        {
          "internalType": "bool",
          "name": "approved",
          "type": "bool"
        }
      ],
      "name": "setApprovalForAll",
      "outputs": [],
      "stateMutability": "nonpayable",
      "type": "function"
    },
    {
      "inputs": [
        {
          "internalType": "address",
          "name": "_grav",
          "type": "address"
        }
      ],
      "name": "setGrav",
      "outputs": [],
      "stateMutability": "nonpayable",
      "type": "function"
    },
    {
      "inputs": [
        {
          "internalType": "uint256[2]",
          "name": "_fee",
          "type": "uint256[2]"
        }
      ],
      "name": "setGravFee",
      "outputs": [],
      "stateMutability": "nonpayable",
      "type": "function"
    },
    {
      "inputs": [
        {
          "internalType": "string",
          "name": "base",
          "type": "string"
        },
        {
          "internalType": "string",
          "name": "fileType",
          "type": "string"
        }
      ],
      "name": "setImageURI",
      "outputs": [],
      "stateMutability": "nonpayable",
      "type": "function"
    },
    {
      "inputs": [
        {
          "internalType": "address",
          "name": "_incubator",
          "type": "address"
        }
      ],
      "name": "setIncubator",
      "outputs": [],
      "stateMutability": "nonpayable",
      "type": "function"
    },
    {
      "inputs": [
        {
          "internalType": "uint256",
          "name": "_fee",
          "type": "uint256"
        }
      ],
      "name": "setIncubatorFee",
      "outputs": [],
      "stateMutability": "nonpayable",
      "type": "function"
    },
    {
      "inputs": [
        {
          "internalType": "uint256",
          "name": "_supply",
          "type": "uint256"
        }
      ],
      "name": "setMaxSupply",
      "outputs": [],
      "stateMutability": "nonpayable",
      "type": "function"
    },
    {
      "inputs": [
        {
          "internalType": "address",
          "name": "_receiver",
          "type": "address"
        }
      ],
      "name": "setPaymentReceiver",
      "outputs": [],
      "stateMutability": "nonpayable",
      "type": "function"
    },
    {
      "inputs": [
        {
          "internalType": "uint256",
          "name": "_supply",
          "type": "uint256"
        }
      ],
      "name": "setPhase1Supply",
      "outputs": [],
      "stateMutability": "nonpayable",
      "type": "function"
    },
    {
      "inputs": [
        {
          "internalType": "address",
          "name": "_usdc",
          "type": "address"
        }
      ],
      "name": "setUSDC",
      "outputs": [],
      "stateMutability": "nonpayable",
      "type": "function"
    },
    {
      "inputs": [
        {
          "internalType": "uint256[2]",
          "name": "_fee",
          "type": "uint256[2]"
        }
      ],
      "name": "setUSDCFee",
      "outputs": [],
      "stateMutability": "nonpayable",
      "type": "function"
    },
    {
      "inputs": [
        {
          "internalType": "address",
          "name": "_voucher",
          "type": "address"
        }
      ],
      "name": "setWLVoucher",
      "outputs": [],
      "stateMutability": "nonpayable",
      "type": "function"
    },
    {
      "inputs": [
        {
          "internalType": "bytes4",
          "name": "interfaceId",
          "type": "bytes4"
        }
      ],
      "name": "supportsInterface",
      "outputs": [
        {
          "internalType": "bool",
          "name": "",
          "type": "bool"
        }
      ],
      "stateMutability": "view",
      "type": "function"
    },
    {
      "inputs": [],
      "name": "symbol",
      "outputs": [
        {
          "internalType": "string",
          "name": "",
          "type": "string"
        }
      ],
      "stateMutability": "view",
      "type": "function"
    },
    {
      "inputs": [],
      "name": "toggleGravPayment",
      "outputs": [],
      "stateMutability": "nonpayable",
      "type": "function"
    },
    {
      "inputs": [],
      "name": "toggleIncubatorSale",
      "outputs": [],
      "stateMutability": "nonpayable",
      "type": "function"
    },
    {
      "inputs": [],
      "name": "togglePaused",
      "outputs": [],
      "stateMutability": "nonpayable",
      "type": "function"
    },
    {
      "inputs": [],
      "name": "togglePhase1",
      "outputs": [],
      "stateMutability": "nonpayable",
      "type": "function"
    },
    {
      "inputs": [],
      "name": "toggleUSDCPayment",
      "outputs": [],
      "stateMutability": "nonpayable",
      "type": "function"
    },
    {
      "inputs": [],
      "name": "toggleWLPhase",
      "outputs": [],
      "stateMutability": "nonpayable",
      "type": "function"
    },
    {
      "inputs": [
        {
          "internalType": "uint256",
          "name": "index",
          "type": "uint256"
        }
      ],
      "name": "tokenByIndex",
      "outputs": [
        {
          "internalType": "uint256",
          "name": "",
          "type": "uint256"
        }
      ],
      "stateMutability": "view",
      "type": "function"
    },
    {
      "inputs": [
        {
          "internalType": "address",
          "name": "owner",
          "type": "address"
        },
        {
          "internalType": "uint256",
          "name": "index",
          "type": "uint256"
        }
      ],
      "name": "tokenOfOwnerByIndex",
      "outputs": [
        {
          "internalType": "uint256",
          "name": "",
          "type": "uint256"
        }
      ],
      "stateMutability": "view",
      "type": "function"
    },
    {
      "inputs": [
        {
          "internalType": "uint256",
          "name": "_tokenId",
          "type": "uint256"
        }
      ],
      "name": "tokenURI",
      "outputs": [
        {
          "internalType": "string",
          "name": "",
          "type": "string"
        }
      ],
      "stateMutability": "view",
      "type": "function"
    },
    {
      "inputs": [
        {
          "internalType": "uint256",
          "name": "",
          "type": "uint256"
        }
      ],
      "name": "total",
      "outputs": [
        {
          "internalType": "uint256",
          "name": "",
          "type": "uint256"
        }
      ],
      "stateMutability": "view",
      "type": "function"
    },
    {
      "inputs": [],
      "name": "totalSupply",
      "outputs": [
        {
          "internalType": "uint256",
          "name": "",
          "type": "uint256"
        }
      ],
      "stateMutability": "view",
      "type": "function"
    },
    {
      "inputs": [
        {
          "internalType": "address",
          "name": "from",
          "type": "address"
        },
        {
          "internalType": "address",
          "name": "to",
          "type": "address"
        },
        {
          "internalType": "uint256",
          "name": "tokenId",
          "type": "uint256"
        }
      ],
      "name": "transferFrom",
      "outputs": [],
      "stateMutability": "nonpayable",
      "type": "function"
    },
    {
      "inputs": [
        {
          "internalType": "address",
          "name": "newOwner",
          "type": "address"
        }
      ],
      "name": "transferOwnership",
      "outputs": [],
      "stateMutability": "nonpayable",
      "type": "function"
    },
    {
      "inputs": [
        {
          "internalType": "uint256",
          "name": "",
          "type": "uint256"
        }
      ],
      "name": "usdcFee",
      "outputs": [
        {
          "internalType": "uint256",
          "name": "",
          "type": "uint256"
        }
      ],
      "stateMutability": "view",
      "type": "function"
    },
    {
      "inputs": [],
      "name": "wlPhase",
      "outputs": [
        {
          "internalType": "bool",
          "name": "",
          "type": "bool"
        }
      ],
      "stateMutability": "view",
      "type": "function"
    }
  ],
  "bytecode": "0x61010060405263024b76a060a090815263029f630060c0526303473bc060e0526200002f90601490600362000823565b506115b36018556103e86019556040805161014081018252601f60a0808301828152605160c0850181905260de60e0860181905261014d61010087018190526101bc6101208801819052938752875180860189528681526020818101859052818a0184905260608083018490526080808401889052828b01939093528a518089018c52898152808301879052808c018690528082018590528084018890528a8c01528a518089018c52898152808301879052808c01869052808201859052808401889052818b01528a519788018b529787528601939093529684015292820194909452808201939093528101919091526200012f9060219060056200086e565b50604080516080810182526064815261022b602082015261061f91810191909152610d0560608201526200016890603a906004620008bc565b506040805160c0810182526064815260ff60208201526101909181019190915261045660608201526105b960808201526108b160a0820152620001b090603e906006620008f3565b506040805160a081018252609b815261019060208201526104569181019190915261068160608201526108b16080820152620001f190604490600562000929565b506040805160a081018252610457808252602082018190529181018290526060810182905260808101919091526200022e90604990600562000929565b506040805160e081018252600460a082018181526319dbdb1960e21b60c08401528252825180840184526006815265707572706c6560d01b602082810191909152808401919091528351808501855260038152621c995960ea1b81830152838501528351808501855282815263626c756560e01b8183015260608401528351808501909452908352636772617960e01b908301526080810191909152620002da90604e9060056200095f565b5060405180608001604052806040518060400160405280600581526020016433b932b2b760d91b815250815260200160405180604001604052806006815260200165707572706c6560d01b815250815260200160405180604001604052806005815260200164776869746560d81b8152508152602001604051806040016040528060048152602001636e6f6e6560e01b815250815250605390600462000382929190620009b2565b506040805160e081018252600960a08201818152680c8e4c2c6dedccae6d60bb1b60c084015282528251808401845260078152666963687468696160c81b6020828101919091528084019190915283518085018552828152681ada1d5cd85d1e985b60ba1b818301528385015283518085018552600b81526a3630b9b9b2b0ba32b930b760a91b81830152606084015283518085019094529083526836b4bc37ba32b930b760b91b908301526080810191909152620004469060579060056200095f565b506040805160e081018252600460a082018181526319dbdb1960e21b60c08401528252825180840184526006815265707572706c6560d01b602082810191909152808401919091528351808501855260038152621c995960ea1b81830152838501528351808501855282815263626c756560e01b8183015260608401528351808501909452908352636772617960e01b908301526080810191909152620004f290605c9060056200095f565b506040805161010081018252600660c0820181815265707572706c6560d01b60e084015282528251808401845260058082526433b932b2b760d91b602083810191909152808501929092528451808601865260038152621c995960ea1b81840152848601528451808601865260048082526370696e6b60e01b82850152606086019190915285518087018752908152636772617960e01b8184015260808501528451808601909552845264626c61636b60d81b9084015260a0820192909252620005c09160619190620009f7565b506040805160a0810182526115b380825260208201819052918101829052606081018290526080810191909152620005fd90606790600562000929565b50606c8054600160481b600160e81b0319167c7a1bac17ccc5b313516c5e16fb24f7659aa5ebed0000000000000000001790557f4b09e658ed251bcafeebbc69400383d49f344ace09b9576fe248bb02c003fe9f606d55606e805465ffffffffffff19166403001e84801790553480156200067757600080fd5b5060405162005c7538038062005c758339810160408190526200069a9162000b81565b604080518082018252600d81526c4f6e655665727365204567677360981b60208083019182528351808501909452600384526245474760e81b908401528151859391620006eb916000919062000a3c565b5080516200070190600190602084019062000a3c565b5050506200071e62000718620007cd60201b60201c565b620007d1565b6001600160a01b03908116608052600b80546001600160a01b0319908116998316999099179055600c8054891697821697909717909655600d8054881695871695909517909455600e8054871693861693909317909255601a805461ffff1916610101179055601080548616918516919091179055606c8054610100600160481b0319166101006001600160401b039094169390930292909217909155600f8054909316911617905562000c62565b3390565b600a80546001600160a01b038381166001600160a01b0319831681179093556040519116919082907f8be0079c531659141344cd1fd0a4f28419497f9722a3daafe3b4186f6b6457e090600090a35050565b82600381019282156200085c579160200282015b828111156200085c578251829063ffffffff1690559160200191906001019062000837565b506200086a92915062000ab9565b5090565b601983019183908215620008ae579160200282015b82811115620008ae5782516200089d908390600562000929565b509160200191906005019062000883565b506200086a92915062000ad0565b82600481019282156200085c579160200282015b828111156200085c578251829061ffff16905591602001919060010190620008d0565b82600681019282156200085c57916020028201828111156200085c578251829061ffff16905591602001919060010190620008d0565b82600581019282156200085c57916020028201828111156200085c578251829061ffff16905591602001919060010190620008d0565b8260058101928215620009a4579160200282015b82811115620009a457825180516200099391849160209091019062000a3c565b509160200191906001019062000973565b506200086a92915062000b01565b8260048101928215620009a4579160200282015b82811115620009a45782518051620009e691849160209091019062000a3c565b5091602001919060010190620009c6565b8260068101928215620009a4579160200282015b82811115620009a4578251805162000a2b91849160209091019062000a3c565b509160200191906001019062000a0b565b82805462000a4a9062000c26565b90600052602060002090601f01602090048101928262000a6e57600085556200085c565b82601f1062000a8957805160ff19168380011785556200085c565b828001600101855582156200085c579182015b828111156200085c57825182559160200191906001019062000a9c565b5b808211156200086a576000815560010162000aba565b808211156200086a576000808255600182018190556002820181905560038201819055600482015560050162000ad0565b808211156200086a57600062000b18828262000b22565b5060010162000b01565b50805462000b309062000c26565b6000825580601f1062000b41575050565b601f01602090049060005260206000209081019062000b61919062000ab9565b50565b80516001600160a01b038116811462000b7c57600080fd5b919050565b600080600080600080600060e0888a03121562000b9d57600080fd5b62000ba88862000b64565b965062000bb86020890162000b64565b955062000bc86040890162000b64565b945062000bd86060890162000b64565b935062000be86080890162000b64565b925062000bf860a0890162000b64565b60c08901519092506001600160401b038116811462000c1657600080fd5b8091505092959891949750929550565b600181811c9082168062000c3b57607f821691505b60208210810362000c5c57634e487b7160e01b600052602260045260246000fd5b50919050565b608051614ff062000c8560003960008181610d310152610d730152614ff06000f3fe608060405234801561001057600080fd5b50600436106103d05760003560e01c806371135034116101ff578063c38e0cbf1161011a578063e431e075116100ad578063f2fde38b1161007c578063f2fde38b146108a7578063f3214303146108ba578063f92842cc146108cd578063fbb7da01146108e057600080fd5b8063e431e0751461083d578063e8fed30214610850578063e985e9c514610863578063f184277c1461089f57600080fd5b8063d2e01fb2116100e9578063d2e01fb21461076f578063d73637a914610804578063d94ae2ab14610817578063dc8c7f831461082a57600080fd5b8063c38e0cbf14610723578063c87b56dd14610736578063cb37f3b214610749578063d1892d771461075c57600080fd5b80639d2b6c3811610192578063b119ebfe11610161578063b119ebfe146106d7578063b3e089a2146106ea578063b7ea67c6146106fd578063b88d4fde1461071057600080fd5b80639d2b6c381461069c578063a22cb465146106a4578063a243d3b6146106b7578063aba6b165146106ca57600080fd5b80638da5cb5b116101ce5780638da5cb5b1461065d57806395d89b411461066e57806395f9492c1461067657806397855d5e1461068957600080fd5b80637113503414610627578063715018a61461062f5780638343841a146106375780638cbae3b41461064a57600080fd5b806333f07c03116102ef5780634f6ccce71161028257806369e53ac71161025157806369e53ac7146105e75780636c0360eb146105f95780636f8b44b01461060157806370a082311461061457600080fd5b80634f6ccce71461059b57806359549e12146105ae5780636352211e146105c157806365ebf99a146105d457600080fd5b806342842e0e116102be57806342842e0e1461054f5780634599bd16146105625780634625220e1461057557806349617d9f1461058857600080fd5b806333f07c031461050e57806336566f06146105215780633dcce30f146105295780633f6377b81461053c57600080fd5b80630bbff4ee1161036757806323b872dd1161033657806323b872dd146104cc578063261c7818146104df5780632f745c59146104f25780633252d1fe1461050557600080fd5b80630bbff4ee1461048b57806318160ddd1461049e57806319900792146104a65780631fe543e3146104b957600080fd5b8063095ea7b3116103a3578063095ea7b3146104475780630991a39f1461045a5780630b0b3e6a146104625780630b73899c1461048357600080fd5b806301ffc9a7146103d557806306fdde03146103fd57806307276ae214610412578063081812fc1461041c575b600080fd5b6103e86103e33660046141c0565b6108f3565b60405190151581526020015b60405180910390f35b61040561091e565b6040516103f4919061423c565b61041a6109b0565b005b61042f61042a36600461424f565b610a00565b6040516001600160a01b0390911681526020016103f4565b61041a61045536600461427d565b610a95565b61041a610baa565b6104756104703660046142a9565b610bf3565b6040519081526020016103f4565b61041a610c24565b61040561049936600461424f565b610c6f565b600854610475565b6104756104b436600461424f565b610d0f565b61041a6104c7366004614311565b610d26565b61041a6104da3660046143c2565b610dae565b6104056104ed36600461424f565b610ddf565b61047561050036600461427d565b610def565b61047560115481565b61041a61051c36600461424f565b610e85565b61041a610eb4565b61041a61053736600461445c565b610ef2565b61041a61054a366004614529565b6115fc565b61041a61055d3660046143c2565b61164d565b61041a61057036600461458c565b611668565b61047561058336600461427d565b61169f565b61041a610596366004614600565b6116ba565b6104756105a936600461424f565b611706565b6104056105bc36600461424f565b611799565b61042f6105cf36600461424f565b6117a9565b61041a6105e2366004614600565b611820565b601a546103e890610100900460ff1681565b61040561186c565b61041a61060f36600461424f565b611879565b610475610622366004614600565b6118a8565b61040561192f565b61041a61193c565b61041a61064536600461424f565b611972565b61047561065836600461424f565b6119a1565b600a546001600160a01b031661042f565b6104056119b1565b61047561068436600461424f565b6119c0565b61041a61069736600461461d565b6119d0565b61041a611d02565b61041a6106b236600461465e565b611d40565b61041a6106c5366004614697565b611d4b565b601a546103e89060ff1681565b6104756106e536600461424f565b6120c1565b61041a6106f8366004614600565b6120d1565b61041a61070b366004614600565b61211d565b61041a61071e3660046146bc565b612169565b61041a61073136600461473b565b6121a1565b61040561074436600461424f565b6125d9565b60105461042f906001600160a01b031681565b61047561076a36600461424f565b612b56565b6107c561077d36600461424f565b601d6020526000908152604090208054600182015460028301546003840154600485015460058601546006870154600c90970154959694959394929360ff9283169391921688565b6040805198895260208901979097529587019490945260608601929092521515608085015260a084015260c0830152151560e0820152610100016103f4565b61040561081236600461424f565b612b66565b61041a61082536600461458c565b612b76565b601a546103e89062010000900460ff1681565b61040561084b36600461424f565b612bad565b61041a61085e366004614600565b612bbd565b6103e86108713660046147a6565b6001600160a01b03918216600090815260056020908152604080832093909416825291909152205460ff1690565b61041a612c09565b61041a6108b5366004614600565b612c54565b6104756108c836600461424f565b612cef565b6104756108db3660046142a9565b612cff565b6104756108ee36600461424f565b612d2a565b60006001600160e01b0319821663780e9d6360e01b1480610918575061091882612d3a565b92915050565b60606000805461092d906147d4565b80601f0160208091040260200160405190810160405280929190818152602001828054610959906147d4565b80156109a65780601f1061097b576101008083540402835291602001916109a6565b820191906000526020600020905b81548152906001019060200180831161098957829003601f168201915b5050505050905090565b600a546001600160a01b031633146109e35760405162461bcd60e51b81526004016109da9061480e565b60405180910390fd5b601a805461ff001981166101009182900460ff1615909102179055565b6000818152600260205260408120546001600160a01b0316610a795760405162461bcd60e51b815260206004820152602c60248201527f4552433732313a20617070726f76656420717565727920666f72206e6f6e657860448201526b34b9ba32b73a103a37b5b2b760a11b60648201526084016109da565b506000908152600460205260409020546001600160a01b031690565b6000610aa0826117a9565b9050806001600160a01b0316836001600160a01b031603610b0d5760405162461bcd60e51b815260206004820152602160248201527f4552433732313a20617070726f76616c20746f2063757272656e74206f776e656044820152603960f91b60648201526084016109da565b336001600160a01b0382161480610b295750610b298133610871565b610b9b5760405162461bcd60e51b815260206004820152603860248201527f4552433732313a20617070726f76652063616c6c6572206973206e6f74206f7760448201527f6e6572206e6f7220617070726f76656420666f7220616c6c000000000000000060648201526084016109da565b610ba58383612d8a565b505050565b600a546001600160a01b03163314610bd45760405162461bcd60e51b81526004016109da9061480e565b601a805462ff0000198116620100009182900460ff1615909102179055565b601f6020528160005260406000208181548110610c0f57600080fd5b90600052602060002001600091509150505481565b600a546001600160a01b03163314610c4e5760405162461bcd60e51b81526004016109da9061480e565b6010805460ff60a81b198116600160a81b9182900460ff1615909102179055565b60578160058110610c7f57600080fd5b018054909150610c8e906147d4565b80601f0160208091040260200160405190810160405280929190818152602001828054610cba906147d4565b8015610d075780601f10610cdc57610100808354040283529160200191610d07565b820191906000526020600020905b815481529060010190602001808311610cea57829003601f168201915b505050505081565b60148160038110610d1f57600080fd5b0154905081565b336001600160a01b037f00000000000000000000000000000000000000000000000000000000000000001614610da05760405163073e64fd60e21b81523360048201526001600160a01b037f00000000000000000000000000000000000000000000000000000000000000001660248201526044016109da565b610daa8282612df8565b5050565b610db83382612f8d565b610dd45760405162461bcd60e51b81526004016109da90614843565b610ba5838383613084565b604e8160058110610c7f57600080fd5b6000610dfa836118a8565b8210610e5c5760405162461bcd60e51b815260206004820152602b60248201527f455243373231456e756d657261626c653a206f776e657220696e646578206f7560448201526a74206f6620626f756e647360a81b60648201526084016109da565b506001600160a01b03919091166000908152600660209081526040808320938352929052205490565b600a546001600160a01b03163314610eaf5760405162461bcd60e51b81526004016109da9061480e565b601155565b600a546001600160a01b03163314610ede5760405162461bcd60e51b81526004016109da9061480e565b606c805460ff19811660ff90911615179055565b606c5460ff1615610f385760405162461bcd60e51b815260206004820152601060248201526f115e1958dd5d1a5bdb881c185d5cd95960821b60448201526064016109da565b601a54610100900460ff16610f865760405162461bcd60e51b81526020600482015260146024820152732732b4ba3432b910383430b9b290189037b9101960611b60448201526064016109da565b8160005b818110156115f557600d5433906001600160a01b0316636352211e878785818110610fb757610fb7614894565b905060200201356040518263ffffffff1660e01b8152600401610fdc91815260200190565b602060405180830381865afa158015610ff9573d6000803e3d6000fd5b505050506040513d601f19601f8201168201806040525081019061101d91906148aa565b6001600160a01b03161461105f5760405162461bcd60e51b81526020600482015260096024820152682737ba1037bbb732b960b91b60448201526064016109da565b600d546000906001600160a01b0316637fb8e61487878581811061108557611085614894565b905060200201356040518263ffffffff1660e01b81526004016110aa91815260200190565b602060405180830381865afa1580156110c7573d6000803e3d6000fd5b505050506040513d601f19601f820116820180604052508101906110eb91906148c7565b9050806017546110fb91906148f6565b60185410156111415760405162461bcd60e51b815260206004820152601260248201527113585e081cdd5c1c1b1e481c995858da195960721b60448201526064016109da565b600d546001600160a01b03166323b872dd333089898781811061116657611166614894565b905060200201356040518463ffffffff1660e01b815260040161118b9392919061490e565b600060405180830381600087803b1580156111a557600080fd5b505af11580156111b9573d6000803e3d6000fd5b5050601a546000925060ff1615905061135357816017546111da91906148f6565b60195410156112215760405162461bcd60e51b8152602060048201526013602482015272141a185cd9481b1a5b5a5d081c995858da1959606a1b60448201526064016109da565b60145461122f908390614932565b600c546010546040516323b872dd60e01b81529293506001600160a01b03918216926323b872dd9261126a923392911690869060040161490e565b6020604051808303816000875af1158015611289573d6000803e3d6000fd5b505050506040513d601f19601f820116820180604052508101906112ad9190614951565b6112ea5760405162461bcd60e51b815260206004820152600e60248201526d141c9a58d9481b9bdd081c185a5960921b60448201526064016109da565b600e546040516371cbe77f60e11b8152600481018490523360248201526001600160a01b039091169063e397cefe90604401600060405180830381600087803b15801561133657600080fd5b505af115801561134a573d6000803e3d6000fd5b505050506114ba565b8480156113695750601054600160a01b900460ff165b1561143857600c546010546001600160a01b03918216916323b872dd9133911685601460015b015461139b9190614932565b6040518463ffffffff1660e01b81526004016113b99392919061490e565b6020604051808303816000875af11580156113d8573d6000803e3d6000fd5b505050506040513d601f19601f820116820180604052508101906113fc9190614951565b6114335760405162461bcd60e51b8152602060048201526008602482015267139bdd081c185a5960c21b60448201526064016109da565b6114ba565b8415801561144f5750601054600160a81b900460ff165b1561147957600b546010546001600160a01b03918216916323b872dd91339116856012600061138f565b60405162461bcd60e51b815260206004820152601660248201527524b73b30b634b2103830bcb6b2b73a1037b83a34b7b760511b60448201526064016109da565b600f54606d54606c54606e546040516305d3b1d360e41b81526000946001600160a01b031693635d3b1d309361151d9391926101009091046001600160401b031691640100000000810461ffff169163ffffffff9091169060019060040161496e565b6020604051808303816000875af115801561153c573d6000803e3d6000fd5b505050506040513d601f19601f8201168201806040525081019061156091906148c7565b33600081815260208080526040808320805460018082018355918552838520018690558151606081018352948552848301988952848201818152958452601e909252909120915182546001600160a01b0319166001600160a01b03909116178255945194810194909455516002909301805460ff191693151593909317909255508190506115ed816149a7565b915050610f8a565b5050505050565b600a546001600160a01b031633146116265760405162461bcd60e51b81526004016109da9061480e565b815161163990601b906020850190613fdd565b508051610ba590601c906020840190613fdd565b610ba583838360405180602001604052806000815250612169565b600a546001600160a01b031633146116925760405162461bcd60e51b81526004016109da9061480e565b610daa6014826002614061565b602080528160005260406000208181548110610c0f57600080fd5b600a546001600160a01b031633146116e45760405162461bcd60e51b81526004016109da9061480e565b600d80546001600160a01b0319166001600160a01b0392909216919091179055565b600061171160085490565b82106117745760405162461bcd60e51b815260206004820152602c60248201527f455243373231456e756d657261626c653a20676c6f62616c20696e646578206f60448201526b7574206f6620626f756e647360a01b60648201526084016109da565b6008828154811061178757611787614894565b90600052602060002001549050919050565b60618160068110610c7f57600080fd5b6000818152600260205260408120546001600160a01b0316806109185760405162461bcd60e51b815260206004820152602960248201527f4552433732313a206f776e657220717565727920666f72206e6f6e657869737460448201526832b73a103a37b5b2b760b91b60648201526084016109da565b600a546001600160a01b0316331461184a5760405162461bcd60e51b81526004016109da9061480e565b601080546001600160a01b0319166001600160a01b0392909216919091179055565b601b8054610c8e906147d4565b600a546001600160a01b031633146118a35760405162461bcd60e51b81526004016109da9061480e565b601855565b60006001600160a01b0382166119135760405162461bcd60e51b815260206004820152602a60248201527f4552433732313a2062616c616e636520717565727920666f7220746865207a65604482015269726f206164647265737360b01b60648201526084016109da565b506001600160a01b031660009081526003602052604090205490565b601c8054610c8e906147d4565b600a546001600160a01b031633146119665760405162461bcd60e51b81526004016109da9061480e565b611970600061322b565b565b600a546001600160a01b0316331461199c5760405162461bcd60e51b81526004016109da9061480e565b601955565b60128160028110610d1f57600080fd5b60606001805461092d906147d4565b60448160058110610d1f57600080fd5b601a5462010000900460ff16611a1b5760405162461bcd60e51b815260206004820152601060248201526f14d85b19481b9bdd081cdd185c9d195960821b60448201526064016109da565b600f54606d54606c54606e546040516305d3b1d360e41b815285946000946001600160a01b0390911693635d3b1d3093611a7e936101009092046001600160401b031691640100000000820461ffff169163ffffffff169060019060040161496e565b6020604051808303816000875af1158015611a9d573d6000803e3d6000fd5b505050506040513d601f19601f82011682018060405250810190611ac191906148c7565b905060005b82811015611c035733611af0868684818110611ae457611ae4614894565b905060200201356117a9565b6001600160a01b031614611b325760405162461bcd60e51b81526020600482015260096024820152682737ba1037bbb732b960b91b60448201526064016109da565b601d6000868684818110611b4857611b48614894565b602090810292909201358352508101919091526040016000206004015460ff1615611ba95760405162461bcd60e51b8152602060048201526011602482015270185b1c9958591e481a5b98dd58985d1959607a1b60448201526064016109da565b6001601d6000878785818110611bc157611bc1614894565b90506020020135815260200190815260200160002060040160006101000a81548160ff0219169083151502179055508080611bfb906149a7565b915050611ac6565b506040805160608101825233815260208082018581526000838501818152868252601e8452858220945185546001600160a01b0319166001600160a01b039091161785559151600185015590516002909301805460ff191693151593909317909255601f905220611c7590858561408e565b50600b546010546011546001600160a01b03928316926323b872dd923392911690611ca1908890614932565b6040518463ffffffff1660e01b8152600401611cbf9392919061490e565b6020604051808303816000875af1158015611cde573d6000803e3d6000fd5b505050506040513d601f19601f820116820180604052508101906115f59190614951565b600a546001600160a01b03163314611d2c5760405162461bcd60e51b81526004016109da9061480e565b601a805460ff19811660ff90911615179055565b610daa33838361327d565b606c5460ff1615611d915760405162461bcd60e51b815260206004820152601060248201526f115e1958dd5d1a5bdb881c185d5cd95960821b60448201526064016109da565b600a821115611de25760405162461bcd60e51b815260206004820152601960248201527f4f6e6c79206d6178203130206d696e7473206174206f6e63650000000000000060448201526064016109da565b601a54610100900460ff1615611e3a5760405162461bcd60e51b815260206004820152601760248201527f50686173652033206e6f7420737461727465642079657400000000000000000060448201526064016109da565b81601754611e4891906148f6565b6018541015611e8e5760405162461bcd60e51b815260206004820152601260248201527113585e081cdd5c1c1b1e481c995858da195960721b60448201526064016109da565b808015611ea45750601054600160a01b900460ff165b15611f7357600c546010546001600160a01b03918216916323b872dd9133911685601460025b0154611ed69190614932565b6040518463ffffffff1660e01b8152600401611ef49392919061490e565b6020604051808303816000875af1158015611f13573d6000803e3d6000fd5b505050506040513d601f19601f82011682018060405250810190611f379190614951565b611f6e5760405162461bcd60e51b8152602060048201526008602482015267139bdd081c185a5960c21b60448201526064016109da565b611fb4565b80158015611f8a5750601054600160a81b900460ff165b1561147957600b546010546001600160a01b03918216916323b872dd913391168560126001611eca565b600f54606d54606c54606e546040516305d3b1d360e41b81526000946001600160a01b031693635d3b1d30936120179391926101009091046001600160401b031691640100000000810461ffff169163ffffffff9091169060019060040161496e565b6020604051808303816000875af1158015612036573d6000803e3d6000fd5b505050506040513d601f19601f8201168201806040525081019061205a91906148c7565b60408051606081018252338152602080820196875260018284018181526000958652601e90925292909320905181546001600160a01b0319166001600160a01b03909116178155945190850155516002909301805460ff1916931515939093179092555050565b60678160058110610d1f57600080fd5b600a546001600160a01b031633146120fb5760405162461bcd60e51b81526004016109da9061480e565b600c80546001600160a01b0319166001600160a01b0392909216919091179055565b600a546001600160a01b031633146121475760405162461bcd60e51b81526004016109da9061480e565b600b80546001600160a01b0319166001600160a01b0392909216919091179055565b6121733383612f8d565b61218f5760405162461bcd60e51b81526004016109da90614843565b61219b8484848461334b565b50505050565b601a5462010000900460ff166121ec5760405162461bcd60e51b815260206004820152601060248201526f14d85b19481b9bdd081cdd185c9d195960821b60448201526064016109da565b82811461222d5760405162461bcd60e51b815260206004820152600f60248201526e098cadccee8d040dad2e6dac2e8c6d608b1b60448201526064016109da565b600f54606d54606c54606e546040516305d3b1d360e41b815287946000946001600160a01b0390911693635d3b1d3093612290936101009092046001600160401b031691640100000000820461ffff169163ffffffff169060019060040161496e565b6020604051808303816000875af11580156122af573d6000803e3d6000fd5b505050506040513d601f19601f820116820180604052508101906122d391906148c7565b905060005b8281101561255e57336122f6888884818110611ae457611ae4614894565b6001600160a01b03161461233c5760405162461bcd60e51b815260206004820152600d60248201526c2737ba1032b3b39037bbb732b960991b60448201526064016109da565b600e5433906001600160a01b0316636352211e87878581811061236157612361614894565b905060200201356040518263ffffffff1660e01b815260040161238691815260200190565b602060405180830381865afa1580156123a3573d6000803e3d6000fd5b505050506040513d601f19601f820116820180604052508101906123c791906148aa565b6001600160a01b0316146124115760405162461bcd60e51b81526020600482015260116024820152702737ba103b37bab1b432b91037bbb732b960791b60448201526064016109da565b601d600088888481811061242757612427614894565b602090810292909201358352508101919091526040016000206004015460ff16156124885760405162461bcd60e51b8152602060048201526011602482015270105b1c9958591e481a5b98dd58985d1959607a1b60448201526064016109da565b600e546001600160a01b03166323b872dd33308888868181106124ad576124ad614894565b905060200201356040518463ffffffff1660e01b81526004016124d29392919061490e565b600060405180830381600087803b1580156124ec57600080fd5b505af1158015612500573d6000803e3d6000fd5b505050506001601d600089898581811061251c5761251c614894565b90506020020135815260200190815260200160002060040160006101000a81548160ff0219169083151502179055508080612556906149a7565b9150506122d8565b506040805160608101825233815260208082018581526000838501818152868252601e8452858220945185546001600160a01b0319166001600160a01b039091161785559151600185015590516002909301805460ff191693151593909317909255601f9052206125d090878761408e565b50505050505050565b6000818152601d60209081526040808320815161012081018352815481526001820154938101939093526002810154838301526003810154606080850191909152600482015460ff161515608085015260058083015460a080870191909152600684015460c08701528451908101948590529195949360e085019291600785019182845b81548152602001906001019080831161265d575050509183525050600c919091015460ff16151560209091015260808101519091506000906126b957604051806040016040528060028152602001616e6f60f01b8152506126d6565b6040518060400160405280600381526020016279657360e81b8152505b90506000604e8360200151600581106126f1576126f1614894565b0180546126fd906147d4565b80601f0160208091040260200160405190810160405280929190818152602001828054612729906147d4565b80156127765780601f1061274b57610100808354040283529160200191612776565b820191906000526020600020905b81548152906001019060200180831161275957829003601f168201915b505050505090506000605384604001516004811061279657612796614894565b0180546127a2906147d4565b80601f01602080910402602001604051908101604052809291908181526020018280546127ce906147d4565b801561281b5780601f106127f05761010080835404028352916020019161281b565b820191906000526020600020905b8154815290600101906020018083116127fe57829003601f168201915b505050505090506000605785600001516005811061283b5761283b614894565b018054612847906147d4565b80601f0160208091040260200160405190810160405280929190818152602001828054612873906147d4565b80156128c05780601f10612895576101008083540402835291602001916128c0565b820191906000526020600020905b8154815290600101906020018083116128a357829003601f168201915b50505050509050600085608001516128f357604051806040016040528060038152602001624e2f4160e81b815250612995565b605c8660a001516005811061290a5761290a614894565b018054612916906147d4565b80601f0160208091040260200160405190810160405280929190818152602001828054612942906147d4565b801561298f5780601f106129645761010080835404028352916020019161298f565b820191906000526020600020905b81548152906001019060200180831161297257829003601f168201915b50505050505b9050600060618760600151600681106129b0576129b0614894565b0180546129bc906147d4565b80601f01602080910402602001604051908101604052809291908181526020018280546129e8906147d4565b8015612a355780601f10612a0a57610100808354040283529160200191612a35565b820191906000526020600020905b815481529060010190602001808311612a1857829003601f168201915b5050505050905060006040518060400160405280600381526020016245676760e81b81525090506000601b612a698c61337e565b601c604051602001612a7d93929190614a75565b60405160208183030381529060405290506000612a9d8a60c0015161337e565b90506000612b1f84612aae8f61337e565b858a8d8d8b604051602001612ac99796959493929190614aa8565b6040516020818303038152906040528b8885604051602001612aed93929190614caf565b60408051601f1981840301815290829052612b0b9291602001614de2565b60405160208183030381529060405261347e565b9050600081604051602001612b349190614e11565b60408051601f198184030181529190529e9d5050505050505050505050505050565b60498160058110610d1f57600080fd5b60538160048110610c7f57600080fd5b600a546001600160a01b03163314612ba05760405162461bcd60e51b81526004016109da9061480e565b610daa60128260026140c9565b605c8160058110610c7f57600080fd5b600a546001600160a01b03163314612be75760405162461bcd60e51b81526004016109da9061480e565b600e80546001600160a01b0319166001600160a01b0392909216919091179055565b600a546001600160a01b03163314612c335760405162461bcd60e51b81526004016109da9061480e565b6010805460ff60a01b198116600160a01b9182900460ff1615909102179055565b600a546001600160a01b03163314612c7e5760405162461bcd60e51b81526004016109da9061480e565b6001600160a01b038116612ce35760405162461bcd60e51b815260206004820152602660248201527f4f776e61626c653a206e6577206f776e657220697320746865207a65726f206160448201526564647265737360d01b60648201526084016109da565b612cec8161322b565b50565b603a8160048110610d1f57600080fd5b60218260058110612d0f57600080fd5b600502018160058110612d2157600080fd5b01549150829050565b603e8160068110610d1f57600080fd5b60006001600160e01b031982166380ac58cd60e01b1480612d6b57506001600160e01b03198216635b5e139f60e01b145b8061091857506301ffc9a760e01b6001600160e01b0319831614610918565b600081815260046020526040902080546001600160a01b0319166001600160a01b0384169081179091558190612dbf826117a9565b6001600160a01b03167f8c5be1e5ebec7d5bd14f71427d1e84f3dd0314c0f7b2291e5b200ac8c7c3b92560405160405180910390a45050565b6000828152601e60205260409020600281015460ff1615612f1b5760005b816001015481101561219b5760178054906000612e32836149a7565b90915550508154601754612e4f916001600160a01b0316906135d0565b612e7383600081518110612e6557612e65614894565b6020026020010151826135ea565b6017546000908152601d60209081526040918290208351815590830151600182015590820151600282015560608201516003820155608082015160048201805460ff191691151591909117905560a082015160058083019190915560c0830151600683015560e0830151612eec916007840191906140f6565b506101009190910151600c909101805460ff191691151591909117905580612f13816149a7565b915050612e16565b60005b816001015481101561219b576000848152601f602052604090208054612f7b919083908110612f4f57612f4f614894565b906000526020600020015484600081518110612f6d57612f6d614894565b602002602001015183613a05565b80612f85816149a7565b915050612f1e565b6000818152600260205260408120546001600160a01b03166130065760405162461bcd60e51b815260206004820152602c60248201527f4552433732313a206f70657261746f7220717565727920666f72206e6f6e657860448201526b34b9ba32b73a103a37b5b2b760a11b60648201526084016109da565b6000613011836117a9565b9050806001600160a01b0316846001600160a01b0316148061305857506001600160a01b0380821660009081526005602090815260408083209388168352929052205460ff165b8061307c5750836001600160a01b031661307184610a00565b6001600160a01b0316145b949350505050565b826001600160a01b0316613097826117a9565b6001600160a01b0316146130fb5760405162461bcd60e51b815260206004820152602560248201527f4552433732313a207472616e736665722066726f6d20696e636f72726563742060448201526437bbb732b960d91b60648201526084016109da565b6001600160a01b03821661315d5760405162461bcd60e51b8152602060048201526024808201527f4552433732313a207472616e7366657220746f20746865207a65726f206164646044820152637265737360e01b60648201526084016109da565b613168838383613b13565b613173600082612d8a565b6001600160a01b038316600090815260036020526040812080546001929061319c908490614e56565b90915550506001600160a01b03821660009081526003602052604081208054600192906131ca9084906148f6565b909155505060008181526002602052604080822080546001600160a01b0319166001600160a01b0386811691821790925591518493918716917fddf252ad1be2c89b69c2b068fc378daa952ba7f163c4a11628f55a4df523b3ef91a4505050565b600a80546001600160a01b038381166001600160a01b0319831681179093556040519116919082907f8be0079c531659141344cd1fd0a4f28419497f9722a3daafe3b4186f6b6457e090600090a35050565b816001600160a01b0316836001600160a01b0316036132de5760405162461bcd60e51b815260206004820152601960248201527f4552433732313a20617070726f766520746f2063616c6c65720000000000000060448201526064016109da565b6001600160a01b03838116600081815260056020908152604080832094871680845294825291829020805460ff191686151590811790915591519182527f17307eab39ab6107e8899845ad3d59bd9653f200f220920489ca2b5937696c31910160405180910390a3505050565b613356848484613084565b61336284848484613bcb565b61219b5760405162461bcd60e51b81526004016109da90614e6d565b6060816000036133a55750506040805180820190915260018152600360fc1b602082015290565b8160005b81156133cf57806133b9816149a7565b91506133c89050600a83614ed5565b91506133a9565b6000816001600160401b038111156133e9576133e96142cb565b6040519080825280601f01601f191660200182016040528015613413576020820181803683370190505b5090505b841561307c57613428600183614e56565b9150613435600a86614ee9565b6134409060306148f6565b60f81b81838151811061345557613455614894565b60200101906001600160f81b031916908160001a905350613477600a86614ed5565b9450613417565b6060815160000361349d57505060408051602081019091526000815290565b6000604051806060016040528060408152602001614f7b60409139905060006003845160026134cc91906148f6565b6134d69190614ed5565b6134e1906004614932565b6001600160401b038111156134f8576134f86142cb565b6040519080825280601f01601f191660200182016040528015613522576020820181803683370190505b509050600182016020820185865187015b8082101561358e576003820191508151603f8160121c168501518453600184019350603f81600c1c168501518453600184019350603f8160061c168501518453600184019350603f8116850151845350600183019250613533565b50506003865106600181146135aa57600281146135bd576135c5565b603d6001830353603d60028303536135c5565b603d60018303535b509195945050505050565b610daa828260405180602001604052806000815250613ccc565b6135f2614123565b6135fa614123565b6000806000806017548888604051602001613628939291909283526020830191909152604082015260600190565b60408051601f198184030181529190528051602090910120975060006067810154613653908a614ee9565b90506136616127108a614ed5565b98506000805b600581101561370d576049816005811061368357613683614894565b015461368f90836148f6565b8310156136da57809650604981600581106136ac576136ac614894565b0180549060006136bb83614efd565b9091555050606780549060006136d083614efd565b919050555061370d565b604981600581106136ed576136ed614894565b01546136f990836148f6565b915080613705816149a7565b915050613667565b506049866005811061372157613721614894565b015461372e9060016148f6565b613738908b614ee9565b91506137466127108b614ed5565b99506000905060005b6021876005811061376257613762614894565b50506005811015613849576021876005811061378057613780614894565b60050201816005811061379557613795614894565b01546137a190836148f6565b83101561380157809550602187600581106137be576137be614894565b6005020181600581106137d3576137d3614894565b0180549060006137e283614efd565b9091555050606880549060006137f783614efd565b9190505550613849565b6021876005811061381457613814614894565b60050201816005811061382957613829614894565b015461383590836148f6565b915080613841816149a7565b91505061374f565b50606954613857908b614ee9565b91506138656127108b614ed5565b99506000905060005b600481101561391457603a816004811061388a5761388a614894565b015461389690836148f6565b8310156138e157809450603a81600481106138b3576138b3614894565b0180549060006138c283614efd565b9091555050606980549060006138d783614efd565b9190505550613914565b603a81600481106138f4576138f4614894565b015461390090836148f6565b91508061390c816149a7565b91505061386e565b50606a54613922908b614ee9565b91506139306127108b614ed5565b99506000905060005b60068110156139df57603e816006811061395557613955614894565b015461396190836148f6565b8310156139ac57809350603e816006811061397e5761397e614894565b01805490600061398d83614efd565b9091555050606a80549060006139a283614efd565b91905055506139df565b603e81600681106139bf576139bf614894565b01546139cb90836148f6565b9150806139d7816149a7565b915050613939565b505050928452602084019190915260408301526060820152600060808201529392505050565b60408051602081018590529081018390526060810182905260800160408051601f19818403018152919052805160209091012091506000606760040154613a4c9084614ee9565b90506000805b6005811015613b0b5760448160058110613a6e57613a6e614894565b0154613a7a90836148f6565b831015613ad8576000868152601d60205260409020600590810182905560449082908110613aaa57613aaa614894565b018054906000613ab983614efd565b9091555050606b8054906000613ace83614efd565b9190505550613b0b565b60448160058110613aeb57613aeb614894565b0154613af790836148f6565b915080613b03816149a7565b915050613a52565b505050505050565b6001600160a01b038316613b6e57613b6981600880546000838152600960205260408120829055600182018355919091527ff3f7a9fe364faab93b216da50a3214154f22a0a2b415b23a84c8169e8b636ee30155565b613b91565b816001600160a01b0316836001600160a01b031614613b9157613b918382613cff565b6001600160a01b038216613ba857610ba581613d9c565b826001600160a01b0316826001600160a01b031614610ba557610ba58282613e4b565b60006001600160a01b0384163b15613cc157604051630a85bd0160e11b81526001600160a01b0385169063150b7a0290613c0f903390899088908890600401614f14565b6020604051808303816000875af1925050508015613c4a575060408051601f3d908101601f19168201909252613c4791810190614f47565b60015b613ca7573d808015613c78576040519150601f19603f3d011682016040523d82523d6000602084013e613c7d565b606091505b508051600003613c9f5760405162461bcd60e51b81526004016109da90614e6d565b805181602001fd5b6001600160e01b031916630a85bd0160e11b14905061307c565b506001949350505050565b613cd68383613e8f565b613ce36000848484613bcb565b610ba55760405162461bcd60e51b81526004016109da90614e6d565b60006001613d0c846118a8565b613d169190614e56565b600083815260076020526040902054909150808214613d69576001600160a01b03841660009081526006602090815260408083208584528252808320548484528184208190558352600790915290208190555b5060009182526007602090815260408084208490556001600160a01b039094168352600681528383209183525290812055565b600854600090613dae90600190614e56565b60008381526009602052604081205460088054939450909284908110613dd657613dd6614894565b906000526020600020015490508060088381548110613df757613df7614894565b6000918252602080832090910192909255828152600990915260408082208490558582528120556008805480613e2f57613e2f614f64565b6001900381819060005260206000200160009055905550505050565b6000613e56836118a8565b6001600160a01b039093166000908152600660209081526040808320868452825280832085905593825260079052919091209190915550565b6001600160a01b038216613ee55760405162461bcd60e51b815260206004820181905260248201527f4552433732313a206d696e7420746f20746865207a65726f206164647265737360448201526064016109da565b6000818152600260205260409020546001600160a01b031615613f4a5760405162461bcd60e51b815260206004820152601c60248201527f4552433732313a20746f6b656e20616c7265616479206d696e7465640000000060448201526064016109da565b613f5660008383613b13565b6001600160a01b0382166000908152600360205260408120805460019290613f7f9084906148f6565b909155505060008181526002602052604080822080546001600160a01b0319166001600160a01b03861690811790915590518392907fddf252ad1be2c89b69c2b068fc378daa952ba7f163c4a11628f55a4df523b3ef908290a45050565b828054613fe9906147d4565b90600052602060002090601f01602090048101928261400b5760008555614051565b82601f1061402457805160ff1916838001178555614051565b82800160010185558215614051579182015b82811115614051578251825591602001919060010190614036565b5061405d929150614177565b5090565b82600381019282156140515791602002820182811115614051578251825591602001919060010190614036565b828054828255906000526020600020908101928215614051579160200282015b828111156140515782358255916020019190600101906140ae565b82600281019282156140515791602002820182811115614051578251825591602001919060010190614036565b82600581019282156140515791602002820182811115614051578251825591602001919060010190614036565b60405180610120016040528060008152602001600081526020016000815260200160008152602001600015158152602001600081526020016000815260200161416a61418c565b8152600060209091015290565b5b8082111561405d5760008155600101614178565b6040518060a001604052806005906020820280368337509192915050565b6001600160e01b031981168114612cec57600080fd5b6000602082840312156141d257600080fd5b81356141dd816141aa565b9392505050565b60005b838110156141ff5781810151838201526020016141e7565b8381111561219b5750506000910152565b600081518084526142288160208601602086016141e4565b601f01601f19169290920160200192915050565b6020815260006141dd6020830184614210565b60006020828403121561426157600080fd5b5035919050565b6001600160a01b0381168114612cec57600080fd5b6000806040838503121561429057600080fd5b823561429b81614268565b946020939093013593505050565b600080604083850312156142bc57600080fd5b50508035926020909101359150565b634e487b7160e01b600052604160045260246000fd5b604051601f8201601f191681016001600160401b0381118282101715614309576143096142cb565b604052919050565b6000806040838503121561432457600080fd5b823591506020808401356001600160401b038082111561434357600080fd5b818601915086601f83011261435757600080fd5b813581811115614369576143696142cb565b8060051b915061437a8483016142e1565b818152918301840191848101908984111561439457600080fd5b938501935b838510156143b257843582529385019390850190614399565b8096505050505050509250929050565b6000806000606084860312156143d757600080fd5b83356143e281614268565b925060208401356143f281614268565b929592945050506040919091013590565b60008083601f84011261441557600080fd5b5081356001600160401b0381111561442c57600080fd5b6020830191508360208260051b850101111561444757600080fd5b9250929050565b8015158114612cec57600080fd5b60008060006040848603121561447157600080fd5b83356001600160401b0381111561448757600080fd5b61449386828701614403565b90945092505060208401356144a78161444e565b809150509250925092565b60006001600160401b038311156144cb576144cb6142cb565b6144de601f8401601f19166020016142e1565b90508281528383830111156144f257600080fd5b828260208301376000602084830101529392505050565b600082601f83011261451a57600080fd5b6141dd838335602085016144b2565b6000806040838503121561453c57600080fd5b82356001600160401b038082111561455357600080fd5b61455f86838701614509565b9350602085013591508082111561457557600080fd5b5061458285828601614509565b9150509250929050565b60006040828403121561459e57600080fd5b82601f8301126145ad57600080fd5b604051604081018181106001600160401b03821117156145cf576145cf6142cb565b80604052508060408401858111156145e657600080fd5b845b818110156135c55780358352602092830192016145e8565b60006020828403121561461257600080fd5b81356141dd81614268565b6000806020838503121561463057600080fd5b82356001600160401b0381111561464657600080fd5b61465285828601614403565b90969095509350505050565b6000806040838503121561467157600080fd5b823561467c81614268565b9150602083013561468c8161444e565b809150509250929050565b600080604083850312156146aa57600080fd5b82359150602083013561468c8161444e565b600080600080608085870312156146d257600080fd5b84356146dd81614268565b935060208501356146ed81614268565b92506040850135915060608501356001600160401b0381111561470f57600080fd5b8501601f8101871361472057600080fd5b61472f878235602084016144b2565b91505092959194509250565b6000806000806040858703121561475157600080fd5b84356001600160401b038082111561476857600080fd5b61477488838901614403565b9096509450602087013591508082111561478d57600080fd5b5061479a87828801614403565b95989497509550505050565b600080604083850312156147b957600080fd5b82356147c481614268565b9150602083013561468c81614268565b600181811c908216806147e857607f821691505b60208210810361480857634e487b7160e01b600052602260045260246000fd5b50919050565b6020808252818101527f4f776e61626c653a2063616c6c6572206973206e6f7420746865206f776e6572604082015260600190565b60208082526031908201527f4552433732313a207472616e736665722063616c6c6572206973206e6f74206f6040820152701ddb995c881b9bdc88185c1c1c9bdd9959607a1b606082015260800190565b634e487b7160e01b600052603260045260246000fd5b6000602082840312156148bc57600080fd5b81516141dd81614268565b6000602082840312156148d957600080fd5b5051919050565b634e487b7160e01b600052601160045260246000fd5b60008219821115614909576149096148e0565b500190565b6001600160a01b039384168152919092166020820152604081019190915260600190565b600081600019048311821515161561494c5761494c6148e0565b500290565b60006020828403121561496357600080fd5b81516141dd8161444e565b9485526001600160401b0393909316602085015261ffff91909116604084015263ffffffff908116606084015216608082015260a00190565b6000600182016149b9576149b96148e0565b5060010190565b8054600090600181811c90808316806149da57607f831692505b602080841082036149fb57634e487b7160e01b600052602260045260246000fd5b818015614a0f5760018114614a2057614a4d565b60ff19861689528489019650614a4d565b60008881526020902060005b86811015614a455781548b820152908501908301614a2c565b505084890196505b50505050505092915050565b60008151614a6b8185602086016141e4565b9290920192915050565b6000614a8182866149c0565b8451614a918183602089016141e4565b614a9d818301866149c0565b979650505050505050565b693d913730b6b2911d101160b11b81528751600090614ace81600a850160208d016141e4565b63010119d160e51b600a918401918201528851614af281600e840160208d016141e4565b7f222c20226465736372697074696f6e223a20224f6e65206f6620746865206665600e92909101918201527f7720737572766976696e6720456767732066726f6d20486f6d6521222c202269602e8201526736b0b3b2911d101160c11b604e8201528751614b67816056840160208c016141e4565b7f222c202261747472696275746573223a205b207b202274726169745f747970656056929091019182015275111d1011213932b2b2111610113b30b63ab2911d101160511b6076820152614ca1614c9b614c57614c51614c14614c0e614bd0608c88018e614a59565b7f227d2c207b202274726169745f74797065223a2022426f647920436f6c6f722281526b1610113b30b63ab2911d101160a11b6020820152602c0190565b8b614a59565b7f227d2c207b202274726169745f74797065223a2022466f6720436f6c6f72222c81526a10113b30b63ab2911d101160a91b6020820152602b0190565b88614a59565b7f227d2c207b202274726169745f74797065223a20224261636b67726f756e642081527121b7b637b9111610113b30b63ab2911d101160711b602082015260320190565b85614a59565b9a9950505050505050505050565b7f227d2c207b202274726169745f74797065223a202268617320496e637562617481526e37b9111610113b30b63ab2911d101160891b602082015260008451614cff81602f8501602089016141e4565b7f227d2c207b202274726169745f74797065223a2022496e63756261746f722043602f918401918201527037b637b9111610113b30b63ab2911d101160791b604f8201528451614d568160608401602089016141e4565b7f227d2c207b202274726169745f74797065223a2022496e63756261746f722053606092909101918201526f03a30b3b2911610113b30b63ab2911d160851b6080820152601160f91b609082018190528451614db98160918501602089016141e4565b6091920191820152614dd860928201637d205d7d60e01b815260040190565b9695505050505050565b60008351614df48184602088016141e4565b835190830190614e088183602088016141e4565b01949350505050565b7f646174613a6170706c69636174696f6e2f6a736f6e3b6261736536342c000000815260008251614e4981601d8501602087016141e4565b91909101601d0192915050565b600082821015614e6857614e686148e0565b500390565b60208082526032908201527f4552433732313a207472616e7366657220746f206e6f6e20455243373231526560408201527131b2b4bb32b91034b6b83632b6b2b73a32b960711b606082015260800190565b634e487b7160e01b600052601260045260246000fd5b600082614ee457614ee4614ebf565b500490565b600082614ef857614ef8614ebf565b500690565b600081614f0c57614f0c6148e0565b506000190190565b6001600160a01b0385811682528416602082015260408101839052608060608201819052600090614dd890830184614210565b600060208284031215614f5957600080fd5b81516141dd816141aa565b634e487b7160e01b600052603160045260246000fdfe4142434445464748494a4b4c4d4e4f505152535455565758595a6162636465666768696a6b6c6d6e6f707172737475767778797a303132333435363738392b2fa2646970667358221220ad1c226dd10fce8c0856342631f46df3f64939530c33aac1f8e11a442b3e372364736f6c634300080e0033",
  "linkReferences": {},
  "deployedLinkReferences": {}
}